:4000000000800020110000000D0A00000D0A000008B5044B1A6803F53F5302331A6000F015FD00BFFA46004010B5054C237833B9044B13B10448AFF300800123237010BD37
:40004000C881FF1F00000000E82A0000084B10B51BB108490848AFF300800848036803B910BD074B002BFBD0BDE81040184700BF00000000CC81FF1FE82A0000C880FF1FDE
:400080000000000008B500F00FFF40B100F006FF102802D100F020FA08BD00F029FA08BDF0B595B062B600F077FD224800F090FE214800F0B5FE214801F0E6F900F034FF37
:4000C00001F05CF801F068F801F060F901F06CF900F048F91A4800F091FD002700F08EFF044600F025FA012806D1E21B154B9A4202D900F039FA274600F064FA00F0AAF937
:40010000044600F0AFF9054600F09CF9064600F091F902900196009523460B4A402104A802F0B0F804A800F069FD4FF47A7000F019FFD3E775040000C5030000850000006D
:40014000EC2A00007F4F1200182B000008B500F0D7FCB0FA80F0400908BD00BF08B500F0D7FCB0FA80F0400908BD00BF08B500F0D5FCB0FA80F0400908BD00BF08B500F066
:40018000D5FCB0FA80F0400908BD00BF014B1860704700BFE481FF1F10B50446007800F03FFD207900F070FD207A00F081FD207B00F092FD10BD00BF08B500F03DFDB8B91B
:4001C00000F06EFDA0B900F07FFD88B900F090FD70B9264B5B68264A134003D5013B63F007030133234800EB0310FFF7D5FF08BD1E4B1B68002B1BDD00F03EFD18B9002237
:400200001A4B1A6008BD194A5368013353601848034003D5013B63F007030133154800EB0310FFF7B9FF114A1368013B136008BD002B1ADA00F018FD18B900220B4B1A6093
:4002400008BD0A4A5368013B53600948034003D5013B63F007030133064800EB0310FFF79BFF024A13680133136008BDE481FF1F07000080CC80FF1F014B9860704700BF45
:40028000E481FF1F10B50446007800F037FD207900F048FD207A00F059FD207B00F06AFD10BD00BF08B500F035FDB8B900F046FDA0B900F057FD88B900F068FD70B9264B94
:4002C000DB68264A134003D5013B63F007030133234800EB0310FFF7D5FF08BD1E4B9B68002B1BDD00F0B0FC18B900221A4B9A6008BD194AD3680133D3601848034003D599
:40030000013B63F007030133154800EB0310FFF7B9FF114A9368013B936008BD002B1ADA00F09AFC18B900220B4B9A6008BD0A4AD368013BD3600948034003D5013B63F0F7
:4003400007030133064800EB0310FFF79BFF024A93680133936008BDE481FF1F07000080CC80FF1F08B506E04FF0FF30FFF70EFF012000F0F7FD00F07FFC0028F4D141F218
:400380008832094B5A6006E04FF0FF30FFF774FF012000F0E7FD00F05FFC0028F4D141F28832014BDA6008BDE481FF1F014B5868704700BFE481FF1F014BD868704700BFC9
:4003C000E481FF1F08B5194B1B6813B1FFF7F4FE12E000F031FC01280BD000F061FC012807D000F071FC012803D000F081FC012802D10F48FFF7D0FE0C4B9B6813B1FFF7D9
:4004000051FF08BD00F086FC01280BD000F096FC012807D000F0A6FC012803D000F0B6FC012802D10248FFF72DFF08BDE481FF1FF481FF1F08B500F01FFCB0FA80F0400911
:4004400008BD00BF08B500F00FFCB0FA80F0400908BD00BF08B500F0F7FBB0FA80F0400908BD00BF08B500F0F7FBB0FA80F0400908BD00BF10B500F0ABFBC4B2204600F026
:40048000B1FB6A2C05D1134A1368A3F54873136010BD682C05D10F4A136803F54873136010BD752C05D10B4A9368A3F5FA53936010BD6E2C05D1074A936803F5FA53936028
:4004C00010BD612C04D1034A9368A3F28A23936010BD00BFE481FF1F102806D1034A136813F1FF3318BF0123136070470482FF1F08B50E4B1B68BBB90138032814D8DFE847
:4005000000F002070B0F6FF0F900FFF73FFE08BDFA20FFF73BFE08BDFA20FFF7ADFE08BD6FF0F900FFF7A8FE08BD00BF0482FF1F014B1868704700BF0482FF1F10B5FFF70D
:4005400005FE08B9002400E00124FFF707FE00B10134FFF70BFE00B10134FFF70FFE00B10134204610BD00BFF8B526E0FFF7EEFD0546FFF7F3FD0746FFF7F8FD0446FFF7B0
:40058000FDFD06462DB127B96FF03100FFF7FEFD04E01FB115B93220FFF7F8FD24B11EB93220FFF769FE05E026B11CB96FF03100FFF762FE642000F0D5FCFFF7BFFF022802
:4005C000D4DDF8BD2DE9F04F87B0FFF7EFFE804685B2FFF7F1FE074684B200F06FF8064600F082F85FFA80FBFFF7B0FD8246FFF7B5FD8146FFF7BAFD0190FFF7BFFDAA2349
:400600008DF808302D0A8DF809508DF80A80240A8DF80B408DF80C70C6F307238DF80D308DF80E608DF80FB08DF810A08DF811909DF804308DF812308DF81300BB238DF818
:400640001430002406E006AB234413F8100C00F019FC01340C2CF6D907B0BDE8F08F00BF38B50024002517E000F09EFD00F0A8FD01F07CF80CA3D3E9002300F029FF0CA30B
:40068000D3E9002301F002FA01F0E8FA0146284601F03AFB05460134B4F57A7FE4DB0649284601F0EDFC38BDF6285C8FC2F50340029A081B9E5ED53F00007A4408B5FFF710
:4006C000CFFF084901F028FC01F076FDB0F5803F02DA002804DA02E04FF6FF7000E0002080B208BD0000C84208B500F065FE00F06FFE00EB4000A0F500500838642303FB43
:4007000000F0074B83FB0023C017C0EBA32000B2642802DC20EAE07008BD642008BD00BF353AFC44FEE700BFF0B40022174611E050F82760F3B226F0FF0608E001EB42053D
:4007400011F812406D78A5550132013BDBB2002BF4D101371A2FEBD9F0BC70470F4B1B78DBB203F007010E4A11701B090132137030220C4B1A70022203F623131A70202231
:4007800003331A70012308490B7003310A70074A13704422064B1A70704700BFCF0100496E580040FD510040285B0040585B00407658004008B50A46002101F05AFD08BDA4
:4007C00008B501F04BFD08BD38B50B22324B1A801823324A13703321023211800232137045F6BF51023211800232137008222C492C48FFF7E5FF02222B4B1A7008224FF0C2
:4008000040231A70032103F500731970274B1B78DBB227490B70274B1A8041F25122023B1A80002419250CE0234B1B7803F0010343EA440404F003044FF4F07000F034FE32
:40084000013D0DB1032CEFD115B90320FFF76AFF1A4B4FF480721A8007221A70002218490A704820023108701A700222033B1A7004220A331A70134A137843F0070313703B
:40088000013A137843F003031370013A137843F08003137038BD00BF8040004082400040F8050048004100400043004008010049A146004022420040254200400440004070
:4008C00006400040A243004038B572B63A4A137843F00403137000240CE0384D630019194A0011462A44084691882858FFF762FF0134E4B2052CF0D900240BE02F49A30006
:400900001819420088180622816A406AFFF758FF0134E4B2002CF1D029494FF09040FFF703FF284A137843F0020313701032137843F002031370244C237843F04003237015
:40094000A2F58632513A137843F01003137008221E491F48FFF734FF0A221E491E48FFF72FFF08221D491E48FFF72AFF08221D491D48FFF725FF08221C491D48FFF720FFDE
:4009800008221C491C48FFF71BFF1C4A137843F0080313701A4D61232B70FFF715FF81232B700122174B1A70FFF7D8FE0E2221461548FFF705FF38BDE8460040442B000018
:4009C0006C00004803500140A0430040C405004802510040CC050048C0510040D8050048F2510040E005004812510040E805004822510040F0050048325100402243004079
:400A00000048004004000840B043004008B501F0F9FB03680C2B00D1FEE7FEE708B5094B1A681044084BC31A802B02DC054B186005E001F0E7FB0C2303604FF0FF32104658
:400A400008BD00BF4C81FF1F3882FF1F08B5104E104D16E029686B68AC68002204E051F8040B43F8040B0432A242F8D1E868002203E0002143F8041B04328242F9D11035E5
:400A8000013E002EE6D101F0C3FBFFF709FBFEE701000000CC2B000008B5104A104B1A60104A136843F40073136000230AE0032B03D80D4A52F8231000E00C490C4A42F8FF
:400AC000231001332F2BF2D90A4B1A780A4B1A70074A0A4B1A60FFF7F7FE08BD0004FA050CED00E014ED00E0000000000D0A00000080FF1FBC760040C080FF1F08ED00E0BD
:400B0000024B1878C0F30010704700BF11510040014B1878C009704711510040024B1878C0F38010704700BF11510040024B1878C0F34010704700BF115100407222074BE9
:400B40001A70202201331A700622603B1A70472210331A7000224E331A7070478665004010B500F0A9FC04460A4A137843F0200313700132137843F010031370023A1378AF
:400B800043F01003137000F0DDF9204600F098FC10BD00BF9665004008B5054B1B7823B9FFF7CCFF0122024B1A70FFF7D9FF08BD0882FF1F014B1878704700BF4664004047
:400BC000024B187800F07F00704700BF6765004010B5FFF7F5FF0402FFF7ECFF204380B210BD00BF034B1B7813F0040FFAD1024B18707047656500404665004038B5074BEE
:400C00001B782BB938BDFFF7EDFF0134A4B201E005460024285D0028F5D138BD0882FF1F044A137803F0EF03000100F0100018431070704730510040024B1878C0F30010C9
:400C4000704700BF31510040024B1878C0F38010704700BF21510040024B1878C0F34010704700BF21510040024B1878C0F3C000704700BF21510040024B1878C0F30010D4
:400C8000704700BF21510040044A137803F0DF03400100F0200018431070704730510040024B1878C0F34010704700BF31510040044A137803F0BF03800100F04000184308
:400CC0001070704730510040024B1878C0F38010704700BF31510040044A137803F07F03C001C0B218431070704700BF30510040014B1878C009704731510040044A13781A
:400D000003F0FE0300F0010018431070704700BF30510040024B187800F00100704700BF31510040044A137803F0FD03400000F0020018431070704730510040024B187888
:400D4000C0F34000704700BF31510040044A137803F0FB03800000F0040018431070704730510040024B1878C0F38000704700BF31510040044A137803F0F703C00000F0F9
:400D8000080018431070704730510040024B1878C0F3C000704700BF31510040014B1B681865704708ED00E04001C0B2014B1870704700BF04E400E01022014B1A60704704
:400DC00000E100E01022014B1A60704780E100E010B50446FFF7F6FF2046FFF7DFFF0720FFF7E2FFFFF7E8FF10BD00BF014B1B689864704708ED00E04001C0B2014B1870C9
:400E0000704700BF02E400E00422014B1A60704700E100E00422014B1A60704780E100E010B50446FFF7F6FF2046FFF7DFFF0720FFF7E2FFFFF7E8FF10BD00BF08B500F0E6
:400E40003BFB094A137843F020031370013A137843F01003137002F58072137843F01003137000F02DFB08BD95640040014B1878704700BF64640040014B1878704700BFF7
:400E800064650040034B1B7813F0020FFAD0024B187070476464004044640040014B1878704700BF54640040044B1B7813F0080F01D0012070470020704700BF6465004060
:400EC00008B501E00A4B1B780A4B1B7813F0080FF8D100F0F1FA084B1A7842F003021A701A7802F0FC021A7000F0EAFA08BD00BF54640040646500409464004008B507229D
:400F0000074B1A70FFF7DCFFFFF7B0FFFFF7B4FF0023044A137002F58072137008BD00BF856400408464004008B5054B1B7823B9FFF7E4FF0122024B1A70FFF77FFF08BDF9
:400F40000A82FF1F054A137843F0020313701032137843F002031370704700BFA243004001BE704710B5044605E0084B186800F09BFAA4F50044B4F5004FF6D8034B58689C
:400F800000FB04F000F090FA10BD00BF5081FF1F08B5034B1B7A00FB03F000F085FA08BD5081FF1F70B504460E46074B1D681F2802D90020FFF7D4FF04F01F04103455F84F
:400FC000240045F8246070BD08ED00E038B504460D46072902D90020FFF7C2FF1F2C02D90020FFF7BDFF04F01F0000F1604000F564406D01EDB2057038BD00BF024B186866
:4010000020F07F40704700BF18E000E008B50A280FD00C2802D0082806D102E04FF4805209E04FF4807206E00020FFF799FF002201E04FF480620021094B198041F28833EB
:4010400042F2107000FB0233064A82FB0302DB17C3EB2233044A1360044B198008BD00BF1882FF1FAD8BDB681C82FF1F1A82FF1F10B500F021FA04461F4A137843F00203A9
:4010800013701032137843F0020313701A3A137843F0010313701032137843F00103137002F5AA521A32137803F0FE0343F0020313700422114B1A70013B1A7842F040023E
:4010C0001A701A7802F0FC021A70C822053B1A700222A3F59753123B1A70094A137843F0080313700A20FFF753FF0122054B1A60204600F0E5F910BDAB4300400E59004055
:401100002F5B004080E200E010B504460A280DD00C2802D0082804D101E0C42207E0442205E00020FFF71CFFC42200E08422034B1A702046FFF76AFF10BD00BF0A59004018
:4011400008B5102000F072F907210020FFF73EFF07490020FFF726FF064A137843F0060313700C20FFF7D0FF0022034B1A8008BD19120000095900402082FF1F08B5054B2D
:401180001B7823B9FFF7DCFF0122024B1A70FFF76FFF08BD0B82FF1F024A137843F001031370704708590040034B188880B2034B1B88C01A00B27047A25B00401A82FF1FED
:4011C00010B4124B1B881BB233B1104B1B881BB203EB83035C0001E00D4B1C680D4B1988411A09B242F2107303FB01F2002903DD04EBD470401003E004EBD47040104042F7
:40120000831893FBF4F000B210BC70471882FF1F1C82FF1F2082FF1F704700BF08B50A280FD00C2802D0082806D102E04FF4805209E04FF4807206E00020FFF791FE002225
:4012400001E04FF480620021094B198041F2883342F2107000FB0233064A82FB0302DB17C3EB2233044A1360044B198008BD00BF2C82FF1FAD8BDB682482FF1F2882FF1FC1
:4012800038B500F019F904461F4A137843F0010313701032137843F0010313701A3A137843F0020313701032137843F00203137002F5AA521232137803F0FE0343F00203B0
:4012C00013700422114B1A70013B1A7842F040021A701A7802F0FC021A70C822053B1A700225A3F597530C3B1D70094A137843F0080313700A20FFF74BFE064B1D6020461A
:4013000000F0DEF838BD00BFAB43004006590040275B004080E200E010B504460A280DD00C2802D0082804D101E0C42207E0442205E00020FFF714FEC42200E08422034B5E
:401340001A702046FFF76AFF10BD00BF0259004008B5102000F074F807210120FFF736FE07490120FFF71EFE064A137843F0060313700C20FFF7D0FF0022034B1A8008BD5E
:4013800029140000015900402A82FF1F08B5054B1B7823B9FFF7DCFF0122024B1A70FFF76FFF08BD0C82FF1F024A137843F001031370704700590040034B188880B2034B21
:4013C0001B88C01A00B27047A05B00402882FF1F10B4124B1B881BB233B1104B1B881BB203EB83035C0001E00D4B1C680D4B1988411A09B242F2107303FB01F2002903DD77
:4014000004EBD470401003E004EBD47040104042831893FBF4F000B210BC70472C82FF1F2482FF1F2A82FF1F704700BF034B1A7800F0F80010431870704700BF0241004093
:40144000034B1A7800F0F80010431870704700BF06410040014B1B68D864704708ED00E04001C0B2014B1870704700BF03E400E00822014B1A60704700E100E00822014B93
:401480001A60704780E100E010B50446FFF7F6FF2046FFF7DFFF0720FFF7E2FFFFF7E8FF10BD00BF000000000230800803D000BF01380046FCD17047EFF3108072B670477F
:4014C00080F31088704700BF81F0004102E000BF83F0004330B54FEA41044FEA430594EA050F08BF90EA020F1FBF54EA000C55EA020C7FEA645C7FEA655C00F0E2804FEA47
:401500005454D4EB5555B8BF6D420CDD2C4480EA020281EA030382EA000083EA010180EA020281EA0303362D88BF30BD11F0004F4FEA01314FF4801C4CEA113102D0404285
:4015400061EB410113F0004F4FEA03334CEA133302D0524263EB430394EA050F00F0A780A4F10104D5F1200E0DDB02FA0EFC22FA05F2801841F1000103FA0EF2801843FAD1
:4015800005F359410EE0A5F120050EF1200E012A03FA0EFC28BF4CF0020C43FA05F3C01851EBE37101F0004507D54FF0000EDCF1000C7EEB00006EEB0101B1F5801F1BD394
:4015C000B1F5001F0CD349085FEA30004FEA3C0C04F101044FEA445212F5800F80F09A80BCF1004F08BF5FEA500C50F1000041EB045141EA050130BD5FEA4C0C404141EB7D
:40160000010111F4801FA4F10104E9D191F0000F04BF01460020B1FA81F308BF2033A3F10B03B3F120020CDA0C3208DD02F1140CC2F10C0201FA0CF021FA02F10CE002F194
:401640001402D8BFC2F1200C01FA02F120FA0CFCDCBF41EA0C019040E41AA2BF01EB0451294330BD6FEA04041F3C1CDA0C340EDC04F11404C4F1200220FA04F001FA02F374
:4016800040EA030021FA04F345EA030130BDC4F10C04C4F1200220FA02F001FA04F340EA0300294630BD21FA04F0294630BD94F0000F83F4801306BF81F480110134013D62
:4016C0004EE77FEA645C18BF7FEA655C29D094EA050F08BF90EA020F05D054EA000C04BF1946104630BD91EA030F1EBF0021002030BD5FEA545C05D14000494128BF41F0E1
:40170000004130BD14F580043CBF01F5801130BD01F0004545F0FE4141F470014FF0000030BD7FEA645C1ABF194610467FEA655C1CBF0B46024650EA013406BF52EA033506
:4017400091EA030F41F4002130BD00BF90F0000F04BF0021704730B54FF4806404F132044FF000054FF0000150E700BF90F0000F04BF0021704730B54FF4806404F132049E
:4017800010F0004548BF40424FF000013EE700BF42004FEAE2014FEA31014FEA02701FBF12F07F4393F07F4F81F06051704792F0000F14BF93F07F4F704730B54FF460748F
:4017C00001F0004521F0004120E700BF50EA010208BF704730B54FF000050AE050EA010208BF704730B511F0004502D5404261EB41014FF4806404F132045FEA915C3FF445
:40180000DCAE4FF003025FEADC0C18BF03325FEADC0C18BF033202EBDC02C2F1200300FA03FC20FA02F001FA03FE40EA0E0021FA02F11444C1E600BF70B54FF0FF0C4CF40B
:40184000E06C1CEA11541DBF1CEA135594EA0C0F95EA0C0F00F0DEF82C4481EA030621EA4C5123EA4C5350EA013518BF52EA033541F4801143F4801338D0A0FB02CE4FF039
:401880000005E1FB02E506F00042E0FB03E54FF00006E1FB03569CF0000F18BF4EF0010EA4F1FF04B6F5007F64F5407404D25FEA4E0E6D4146EB060642EAC62141EA555113
:4018C0004FEAC52040EA5E504FEACE2EB4F1FD0C88BFBCF5E06F1ED8BEF1004F08BF5FEA500E50F1000041EB045170BD06F0004646EA010140EA020081EA0301B4EB5C046F
:40190000C2BFD4EB0C0541EA045170BD41F480114FF0000E013C00F3AB8014F1360FDEBF002001F0004170BDC4F10004203C35DA0C341BDC04F11404C4F1200500FA05F3A1
:4019400020FA04F001FA05F240EA020001F0004221F0004110EBD37021FA04F642EB06015EEA430E08BF20EAD37070BDC4F10C04C4F1200500FA04F320FA05F001FA04F2C5
:4019800040EA020001F0004110EBD37041F100015EEA430E08BF20EAD37070BDC4F1200500FA05F24EEA020E20FA04F301FA05F243EA020321FA04F001F0004121FA04F2E4
:4019C00020EA020000EBD3705EEA430E08BF20EAD37070BD94F0000F0FD101F00046400041EB010111F4801F08BF013CF7D041EA060195F0000F18BF704703F0004652006D
:401A000043EB030313F4801F08BF013DF7D043EA0603704794EA0C0F0CEA135518BF95EA0C0F0CD050EA410618BF52EA4306D1D181EA030101F000414FF0000070BD50EA09
:401A4000410606BF1046194652EA430619D094EA0C0F02D150EA013613D195EA0C0F05D152EA03361CBF104619460AD181EA030101F0004141F0FE4141F470014FF0000030
:401A800070BD41F0FE4141F4780170BD70B54FF0FF0C4CF4E06C1CEA11541DBF1CEA135594EA0C0F95EA0C0F00F0A7F8A4EB050481EA030E52EA03354FEA013100F0888051
:401AC0004FEA03334FF0805545EA131343EA12634FEA022245EA111545EA10654FEA00260EF000419D4208BF964244F1FD0404F5407402D25B084FEA3202B61A65EB03054B
:401B00005B084FEA32024FF480104FF4002CB6EB020E75EB030E22BFB61A754640EA0C005B084FEA3202B6EB020E75EB030E22BFB61A754640EA5C005B084FEA3202B6EB7A
:401B4000020E75EB030E22BFB61A754640EA9C005B084FEA3202B6EB020E75EB030E22BFB61A754640EADC0055EA060E18D04FEA051545EA16754FEA06164FEAC30343EA85
:401B800052734FEAC2025FEA1C1CC0D111F4801F0BD141EA00014FF000004FF0004CB6E711F4801F04BF01430020B4F1FD0C88BFBCF5E06F3FF6AFAEB5EB030C04BFB6EBD9
:401BC000020C5FEA500C50F1000041EB045170BD0EF0004E4EEA113114EB5C04C2BFD4EB0C0541EA045170BD41F480114FF0000E013C90E645EA060E8DE60CEA135594EAC8
:401C00000C0F08BF95EA0C0F3FF43BAF94EA0C0F0AD150EA01347FF434AF95EA0C0F7FF425AF104619462CE795EA0C0F06D152EA03353FF4FDAE1046194622E750EA410627
:401C400018BF52EA43067FF4C5AE50EA41047FF40DAF52EA43057FF4EBAE12E74FEA4102B2F1E04324BFB3F5001CDCF1FE5C0DD901F0004C4FEAC0024CEA5070B2F1004FD5
:401C800040EB830008BF20F00100704711F0804F21D113F13872BCBF01F00040704741F480114FEA5252C2F11802C2F1200C10FA0CF320FA02F018BF40F001004FEAC1238B
:401CC0004FEAD32303FA0CFC40EA0C0023FA02F34FEA4303CCE77FEA625307D150EA01331EBF4FF0FE4040F44000704701F0004040F0FE4040F40000704700BF80F0004054
:401D000002E000BF81F0004142001FBF5FEA410392EA030F7FEA226C7FEA236C6AD04FEA1262D2EB1363C1BFD218414048404140B8BF5B42192B88BF704710F0004F40F43F
:401D4000000020F07F4018BF404211F0004F41F4000121F07F4118BF494292EA030F3FD0A2F1010241FA03FC10EB0C00C3F1200301FA03F100F0004302D5494260EB400028
:401D8000B0F5000F13D3B0F1807F06D340084FEA310102F10102FE2A51D2B1F1004F40EBC25008BF20F0010040EA03007047490040EB000010F4000FA2F10102EDD1B0FAAD
:401DC00080FCACF1080CB2EB0C0200FA0CF0AABF00EBC25052421843BCBFD0401843704792F0000F81F4000106BF80F400000132013BB5E74FEA41037FEA226C18BF7FEA24
:401E0000236C21D092EA030F04D092F0000F08BF0846704790EA010F1CBF0020704712F07F4F04D1400028BF40F00040704712F100723CBF00F50000704700F0004343F0B2
:401E4000FE4040F4000070477FEA226216BF08467FEA23630146420206BF5FEA412390EA010F40F4800070474FF0000304E000BF10F0004348BF40425FEA000C08BF7047C4
:401E800043F0964301464FF000001CE050EA010208BF70474FF000030AE000BF50EA010208BF704711F0004302D5404261EB41015FEA010C02BF84460146002043F0B64394
:401EC00008BFA3F18053A3F50003BCFA8CF2083AA3EBC25310DB01FA02FC634400FA02FCC2F12002BCF1004F20FA02F243EB020008BF20F00100704702F1200201FA02FCD1
:401F0000C2F1200250EA4C0021FA02F243EB020008BF20EADC7070474FF0FF0C1CEAD0521EBF1CEAD15392EA0C0F93EA0C0F6FD01A4480EA010C400218BF5FEA41211ED0C5
:401F40004FF0006343EA501043EA5111A0FB01310CF00040B1F5000F3EBF490041EAD3715B0040EA010062F17F02FD2A1DD8B3F1004F40EBC25008BF20F00100704790F07B
:401F8000000F0CF0004C08BF49024CEA502040EA51207F3AC2BFD2F1FF0340EAC250704740F400004FF00003013A5DDC12F1190FDCBF00F000407047C2F10002410021FADD
:401FC00002F1C2F1200200FA02FC5FEA310040F1000053EA4C0308BF20EADC70704792F0000F00F0004C02BF400010F4000F013AF9D040EA0C0093F0000F01F0004C02BF6B
:40200000490011F4000F013BF9D041EA0C018FE70CEAD15392EA0C0F18BF93EA0C0F0AD030F0004C18BF31F0004CD8D180EA010000F00040704790F0000F17BF90F0004FB7
:40204000084691F0000F91F0004F14D092EA0C0F01D142020FD193EA0C0F03D14B0218BF084608D180EA010000F0004040F0FE4040F40000704740F0FE4040F440007047FD
:402080004FF0FF0C1CEAD0521EBF1CEAD15392EA0C0F93EA0C0F69D0A2EB030280EA010C49024FEA402037D04FF0805343EA111143EA10130CF000408B4238BF5B0042F10C
:4020C0007D024FF4000C8B4224BF5B1A40EA0C00B3EB510F24BFA3EB510340EA5C00B3EB910F24BFA3EB910340EA9C00B3EBD10F24BFA3EBD10340EADC001B0118BF5FEA60
:402100001C1CE0D1FD2A3FF650AF8B4240EBC25008BF20F0010070470CF0004C4CEA50207F32C2BFD2F1FF0340EAC250704740F400004FF00003013A37E792F0000F00F09A
:40214000004C02BF400010F4000F013AF9D040EA0C0093F0000F01F0004C02BF490011F4000F013BF9D041EA0C0195E70CEAD15392EA0C0F08D142027FF47DAF93EA0C0F1A
:402180007FF470AF084676E793EA0C0F04D14B023FF44CAF08466EE730F0004C18BF31F0004CCAD130F000427FF45CAF31F000437FF43CAF5FE700BF4FEA4002B2F1FE4FFA
:4021C0000FD34FF09E03B3EB12620DD94FEA002343F0004310F0004F23FA02F018BF404270474FF00000704712F1610F01D1420205D110F0004008BF6FF0004070474FF0F4
:4022000000007047014B1868704700BFC081FF1F0E4B70B51E460E4C0025E41AA410A54204D056F8253098470135F8E700F0BCFC084B094C1E46E41AA4100025A54204D09B
:4022400056F8253098470135F8E770BDB42B0000B42B0000B42B0000BC2B000010B5431E0A44914204D011F8014B03F8014FF8E710BD03460244934202D003F8011BFAE781
:40228000704700000CB430B5164B0C1E9DB01D6804DA8B232B604FF0FF301EE04FF40273ADF814300CBF234604F1FF33049307934FF6FF7302900690ADF81630209A21AB65
:4022C00002A92846019300F069F8431CBCBF8B232B6014B1029B00221A701DB0BDE8304002B07047C081FF1F2DE9F0478E6882469E420C46914698463ED88A8912F4906FF5
:402300003AD02568096902236F1A656905EB450595FBF3F57B1C43449D4238BF1D4653050FD5294600F040FB064698B13A462169FFF794FFA38923F4906343F08003A38101
:4023400013E02A4600F08EFB064670B92169504600F0DEFA0C23CAF80030A3894FF0FF3043F04003A381BDE8F08726613E44266046466561ED1BA560464528BF4646494638
:402380003246206800F0A8FAA36800209B1BA36023681E442660BDE8F08700002DE9F04F9DB003938B8980461C060D4616460DD50B695BB9402100F0F7FA2860286118B9A7
:4023C0000C23C8F80030CDE040236B610023099320238DF82930DFF89CB130238DF82A3037463C4614F8013B1BB9B7EB060910D003E0252BF9D02746F3E74B463246294645
:402400004046FFF771FF013000F0A780099B4B4409933B78002B00F0A08000234FF0FF3204930793059206938DF853301A930126052221784E4800F041FA671C049B38B14F
:402440004B4A3C46801A06FA00F018430490EFE7D90644BF20228DF853201A0744BF2B228DF8532022782A2A03D0079A00210A200BE0039A111D12680391002A10DA524258
:4024800043F00200079204900BE027463B780134303B092B03D800FB02320121F5E701B107923B782E2B1ED17B782A2B0AD1039B02371A1D1B680392002BB8BF4FF0FF3331
:4024C000059310E0002319460593781C0A2407463A780130303A092A03D804FB01210123F5E703B1059103223978224800F0E6F940B14023CBEB000003FA00F0049B013788
:4025000018430490397806221B487E1C8DF8281000F0D4F988B1194B33B9039B073323F007030833039314E003AB00932A46144B04A94046AFF3008007E003AB00932A461C
:402540000F4B04A9404600F093F8B0F1FF3F824603D0099B5344099342E7AB895B0601D4099801E04FF0FF301DB0BDE8F08F00BF742B00007A2B00007E2B000000000000E2
:40258000E92200002DE9F04791461F460A698B6806469342B8BF1346C9F8003091F843200C46DDF8208012B10133C9F800302368990642BFD9F800300233C9F800302568C5
:4025C00015F0060510D104F1190A07E00123524639463046C04701301AD00135E368D9F800209B1A9D42F1DB94F843302268003318BF012392060FD5E118302081F843000E
:402600005A1C94F845102244023382F8431003E04FF0FF30BDE8F08704F1430239463046C0470130F4D02268D9F80050E36802F00602042A08BF5D1B2269A3680CBF25EA76
:40264000E57500259342C4BF9B1AED184FF000091A344D4509D00123224639463046C0470130D5D009F10109F3E70020BDE8F0872DE9F04317460A7E85B06E2A984606462B
:402680000C460C9B01F1430E00F0AE8011D8632A22D009D8002A00F0BB80582A40F0CA8081F84520834955E0642A1ED0692A1CD0C0E0732A00F0B08009D86F2A2ED0702ADD
:4026C00040F0B8800A6842F020020A603EE0752A24D0782A3AD0ADE01A6801F14205111D1960136884F84230A8E021681A6811F0800F02D0111D196008E011F0400F02F1C6
:402700000401196002D0B2F9003000E01368002B3CDA2D225B4284F8432037E021681A6811F0800F02D0111D196007E011F0400F02F10401196001D0138800E01368227ECD
:402740005C496F2A14BF0A2208221BE078225A4984F845202268186812F0800F00F104051D6003D1550601D5038800E00368D00744BF42F0200222601BB9226822F02002AA
:4027800022601022002084F8430001E049490A226568002DA56008DB206820F0040020602BB9002D7DD175460CE0002B79D07546B3FBF2F002FB1033CB5C05F8013D034639
:4027C0000028F5D1082A0BD12368DA0708D5236962689A42DEBF302305F8013C05F1FF35C5EB0E0323612EE008681A6810F0800F496903D0101D1860136808E010F0400F5E
:4028000002F104001860136801D0198000E0196000232361754616E01A68111D1960156800216268284600F049F808B1401B6060636804E004F1420584F84220012323611E
:40284000002384F84330CDF800803B4603AA21463046FFF797FE013002D14FF0FF3026E023692A4639463046C0470130F5D023689B0710D5002504F1190907E001234A461C
:4028800039463046C0470130E7D00135E368039A9B1A9D42F2DBE068039B9842B8BF184605E00B7804F1420584F842308AE705B0BDE8F083852B0000962B000010B5C9B29F
:4028C00002449042034605D01C7801308C42F8D1184610BD002010BD884210B501EB020301D8421E0BE09842FBD28118D21AD34204D013F8014D01F8014DF8E710BD99424E
:4029000004D011F8014B02F8014FF8E710BD000038B50546002944D051F8043C0C1F002BB8BFE41800F0D4F81E4A1368114613B96360146030E0A3420DD92268A0188342D6
:4029400001BF18685B681218226063600C6023E0A24203D813465A68002AF9D118681918A1420BD12168014458188242196013D110685268014419605A600DE002D90C2338
:402980002B6009E021686018824201BF106852680918216062605C602846BDE8384000F098B838BD1482FF1F70B5CD1C25F0030508350C2D38BF0C25002D064601DBA9424F
:4029C00002D90C23336046E000F082F8234B1C681A462146A1B10B685B1B0ED40B2B03D90B60CC18CD501EE08C420BBF63684B681360636018BF0C4615E00C464968E9E71B
:402A0000174C23681BB9304600F052F820602946304600F04DF8431C18D0C41C24F00304A0420DD12560304600F053F804F10B00231D20F00700C31A0ED05A42E25070BD45
:402A4000211A304600F034F80130EBD10C233360304600F03EF8002070BD00BF1482FF1F1082FF1FF8B5074615460E4621B91146BDE8F840FFF798BF1AB9FFF749FF28464B
:402A8000F8BD00F027F885420ED929463846FFF78BFF044650B131462A46FFF7DFFB31463846FFF735FF01E03046F8BD2046F8BD38B5064C0023054608462360FDF7AEFFD0
:402AC000431C02D1236803B12B6038BD3082FF1F7047704751F8040C0028BEBF091851F8043CC0180438704700000000526561647920746F2074657374206E657720696405
:402B0000656173207468617420646F6E277420776F726B210D0A000055703A2025692C20446F776E3A2025692C2052696768743A2025692C204C6566743A20256920200DBD
:402B40000A00000040510040300000000140001000140140000800400140000A004C0140000200500140200060520040BC05004806004300232D302B2000686C4C006566D7
:402B800067454647003031323334353637383941424344454600303132333435363738396162636465660000F8B500BFF8BC08BC9E4670474D000000990A0000F8B500BFFD
:402BC000F8BC08BC9E46704729000000E02B0000C880FF1F0001000070000000000000000000000001000000000000000000000001000000000000000000000000000000B5
:402C0000010000000000000000000000010000000100000000000000000000000100000000000000000000000100000001000000000000000000000001000000000000008D
:402C40000000000001000000010000000000000000000000010000000000000000000000000000003882FF1F0000E02EC05D00001800000000366E01000000000000000091
:402C8000000000000000000000000000000000000000000000000000722B000000000000000000000000000000000000000000000000000000000000000000000000000077
:402CC0000000000000000000000000000000000000000000000000006081FF1F000000000000000000000000000000000000000000000000000000000000000000000000D5
:402D00000000000000000000000000000000000000000000000000000000000000000000000000000000000000000000000000000000000000000000000000000000000093
:402D40000000000000000000000000000000000000000000000000000000000000000000000000000000000000000000000000000000000000000000000000000000000053
:402D80000000000000000000000000000000000000000000000000000000000000000000000000000000000000000000000000000000000000000000000000000000000013
:402DC00000000000000000000000000000000000000000000000000000000000000000000000000000000000000000000000000000000000000000000000000000000000D3
:020000040003F7
:0200000480007A
:40000000015B004002640040046500404D04014037050140500601404D07014002090140020B0140471401404C150140511601404F170140031B0140074001400541014005
:4000400005420140064301400545014008460140034701400848014005490140024C0140094D014004500140025101402721844785078478850F867287380010011004044B
:40008000050906080710080C090C0B110E1012011408151C1604170219141A101E031F032003212024032720280329102B0C2C0C3010320C332034013602371F3E513F0472
:4000C000400141054210440445CB46ED470F481F49FF4AFF4BFF4C224EF04F0C508C51105441580459045A245B045C115D085F21684069016AC06B018A019F01A701B20115
:40010000B701B902BF41D602D804D904DB24DC08DD80DF310020020103900608082009400A900B8010A8134019201A511E202188268128202A102B802F203180321033082A
:40014000362037603B264040420149064A01522053445A405B2861086CA86D806E046F017B107D0281048D018F10C04FC20FC40FCA47CC1ECE07D009D208D60ED802DE8252
:40018000E4010501060807040A050E100F201110130116081A061B1E1F2021012202230226032701280629012A012B082E013018311F340735203A203E013F114023410698
:4001C0004201440546CE480C49FF4AFF4BFF4C624DA04EF04F41500C580459045A045C015D015F016640670269106A306B106D106E106F1289079002960699089A019B018A
:40020000A507A902AB04B004B303B402B50CB601B928BE10BF04D608D804D904DB04DC10DF010108021005840604071008280A400E100F04140516A019101A401B801D02F0
:400240001F102124230424402620280429082A042B082C882E882F013020310232023650370139103A203B203C803E04451447404E0A5440572059225A805B08602862414A
:4002800082089295930894409620976699229B019C209E199F50A088A180A290A410A7A8AA01AB08C0E0C26EC4F0CAE6CCB4CE54D070D230D60FD80FE601EE01E601EE0146
:4002C000E210E4010004020204180501066008070C020E0510011202141816201A401D021E28240728502A202C182E2031023278360737013A083F41542056045804590407
:400300005B045C015F0180018240830285018626883F89048C108F02901992249502960198279A189C199E22A418A502A808A901AD01B01FB240B301B504B638B702B9803A
:40034000BA82BF10D401D804D904DB04DC11DD10DF01002101890308041006020750080209600B200C100D0A0E01100411441201161819881C801D0A1E0320402301250466
:40038000264027182C182F0A318036083B0C3C803D043E013F2058015C205E405F0A608061106311802081408312848088018B048C438D048E108F409010910492509338E8
:4003C0009501981499109A1B9D8CA008A1E0A208A312A410A506A641C0FFC2FFC467CA70CC48CEF2D6F1D80FEE08010802080421060607730810090C0D1C0E200F63101035
:40040000110F1370140C15211623197F1A0C1C10214224102573270C282129042A0E2D632E233020311C320F350F361037603A083B283E4140614102450B46E047C04829BA
:4004400049FF4AFF4BFF4EF04F44500C56025713580459045A045B045C115D115F0166C06A406B02C003C540C9FFCA07CBFFCC40CD20CEF0CF05D008D418D604DA04DB04B3
:40048000DD11DF01E040E1A8E240E3200418050806810C040D2A0E020F8014111510160417081D081E411F08241025102608276A2C102DA13504360137203D083E223F807F
:4004C000410444014540460448204B024C044E10560157105B025E0162A063406C086D046F027520763A8740911892109338950496209702980199109A809D8C9F40A1A01C
:40050000A2A0A430A514A648A708AC21AD04AE40AF50B201B308C0F0C2F0C4E0CAF0CCE0CEF0D032D220D681D80DE040E210EE0831083320340237403B20CCF0CE1097202F
:400540009C029F40A508A72097209C029F40A508A72097209C02A508A720AB40EE80012004085220C006D4041A8082208D2090089920A620C608E20880049008AA40250898
:40058000871097209C02A508A720C880E64084029C02AF20E640EE101F80C60112207C408C408E20AF80C408DE04E002E20800030A0310031A0300BF0103000080800000DC
:4005C0004000000000000000000014008000408080008000000000000000000000003000F00B0B00000000007E7901000100000000FFFF00000000000C0018010C001801F0
:4006000000000000000000000000000000000000000000000000000000000000000000000000000000000000000000000000000000000000000000000000000000000000BA
:40064000000000000000000000000000000000000000000000000000000000000000000000000000000000000000000000000000000000000000000000000000000000007A
:40068000000000000000000000000000000000000000000000000000000000000000000000000000000000000000000000000000000000000000000000000000000000003A
:4006C00000000000000000000000000000000000000000000000000000000000000000000000000000000000000000000000000000000000000000000000000000000000FA
:0200000490006A
:0400000000004005B7
:0200000490105A
:04000000BC90ACAF55
:0200000490303A
:02000000A35EFD
:0200000490402A
:4000000000000000000000000000000000000000000000000000000000000000000000000000000000000000000000000000000000000000000000000000000000000000C0
:400040000000000000000000000000000000000000000000000000000000000000000000000000000000000000000000000000000000000000000000000000000000000080
:400080000000000000000000000000000000000000000000000000000000000000000000000000000000000000000000000000000000000000000000000000000000000040
:4000C0000000000000000000000000000000000000000000000000000000000000000000000000000000000000000000000000000000000000000000000000000000000000
:0200000490501A
:0C00000000012E16106900012E28B3C765
:00000001FF