:400000000080002011000000F5040000F504000008B5044B1A6803F53F5302331A6000F071FA00BFFA46004010B5054C237833B9044B13B10448AFF300800123237010BD1A
:400040003881FF1F00000000B8070000084B10B51BB108490848AFF300800848036803B910BD074B002BFBD0BDE81040184700BF000000003C81FF1FB8070000C880FF1FA4
:400080000000000008B500F075F808BD38B562B600F06AF8012000F0AFF8002500F034FB044600F0DBF8012807D1621B074B9A42F4D900F069F82546F0E700F0CFF8002816
:4000C000ECD1FFF7DFFF00F09DF8E7E7BF27090008B500F071FAB0FA80F0400908BD00BF08B500F071FAB0FA80F0400908BD00BF08B500F071FAB0FA80F0400908BD00BF30
:4001000008B500F071FAB0FA80F0400908BD00BF014B1860704700BF5481FF1F014B5860704700BF5481FF1F08B500F07BFAB0FA80F0400908BD00BF08B500F06BFAB0FA61
:4001400080F0400908BD00BF08B500F053FAB0FA80F0400908BD00BF08B500F053FAB0FA80F0400908BD00BF08B500F0BFFA62B608BD00BF08B500F07BFA10F0080FFAD07B
:4001800000F07CFA08BD00BFF8B51A4B1B68012B2FD1FFF79DFF0546FFF7A2FF0746FFF7A7FF0446FFF7ACFF064645B13FB9FFF7BBFF20B96FF00900FFF7AAFF07E037B1B3
:4001C0002DB9FFF7B9FF10B90A20FFF7A1FF3CB136B9FFF7B9FF18B90A20FFF79FFFF8BD3EB134B9FFF7B8FF18B96FF00900FFF795FFF8BDCC80FF1F014B1860704700BF6F
:40020000CC80FF1F08B5144B1B681BBB0138032820D8DFE800F0020A1118FFF785FFC8B96FF00900FFF774FF08BDFFF785FF88B90A20FFF76DFF08BDFFF786FF50B90A204C
:40024000FFF76CFF08BDFFF787FF18B96FF00900FFF764FF08BD00BFCC80FF1F014B1868704700BFCC80FF1FFEE700BFF0B40022174611E050F82760F3B226F0FF0608E081
:4002800001EB420511F812406D78A5550132013BDBB2002BF4D101371A2FEBD9F0BC7047064B1B78DBB203F00701054A11701B09013213704422034B1A707047CF01004919
:4002C0006E5800407658004008B50A46002100F06AFA08BD38B50B22294B1A801823294A13703321023211800232137045F6BF5102321180023213700222234B1A7008226D
:400300004FF040231A70032103F5007319701F4B1B78DBB21E490B701E4B1A8041F25122023B1A80002419250CE01B4B1B7803F0010343EA440404F003044FF4F07000F04C
:40034000EBF9013D0DB1032CEFD115B90320FFF78BFF124B4FF480721A8007221A7000220F490A704820023108701A700222033B1A700C4A137843F00703137038BD00BF8C
:4003800080400040824000400043004008010049A146004022420040254200400440004006400040A243004008B500F0F1F908BD38B572B63A4A137843F004031370002464
:4003C0000CE0384D630019194A0011462A44084691882858FFF778FF0134E4B2062CF0D900240BE02F49A3001819420088188022016BC06AFFF7D8FF0134E4B2002CF1D0D4
:4004000029494FF09040FFF731FF284A137843F0020313701032137843F002031370244C237843F040032370A2F58632513A137843F01003137008221E491F48FFF7B4FFF2
:400440000A221E491E48FFF7AFFF08221D491E48FFF7AAFF08221D491D48FFF7A5FF08221C491D48FFF7A0FF08221C491C48FFF79BFF1C4A137843F0080313701A4D612312
:400480002B70FFF727FF81232B700122174B1A70FFF706FF0E2221461548FFF785FF38BDE8460040BC0700006C00004803500140A043004060050048025100406805004848
:4004C000C051004074050048F25100407C0500481251004084050048225100408C05004832510040224300400048004004000840B043004008B500F01FF903680C2B00D1F7
:40050000FEE7FEE708B5104E104D16E029686B68AC68002204E051F8040B43F8040B0432A242F8D1E868002203E0002143F8041B04328242F9D11035013E002EE6D100F093
:4005400001F9FFF7A3FDFEE7010000001808000008B5104A104B1A60104A136843F40073136000230AE0032B03D80D4A52F8231000E00C490C4A42F8231001332F2BF2D9CC
:400580000A4B1A780A4B1A70074A0A4B1A60FFF70FFF08BD0004FA050CED00E014ED00E000000000F50400000080FF1FBC760040C080FF1F08ED00E0024B1878C0F3801073
:4005C000704700BF01510040024B1878C0F34010704700BF01510040024B1878C0F34000704700BF01510040014B1878C009704701510040024B1878C0F3C000704700BF7F
:40060000F1510040024B187800F00100704700BFF1510040024B1878C0F38000704700BFF1510040024B1878C0F34000704700BFF151004008B500F077F8094A137843F075
:4006400020031370A2F20112137843F0100313700232137843F01003137000F069F808BD99650040014B1878704700BF68640040014B1878704700BF6A640040014B187863
:40068000704700BF5964004008B501E00A4B1B780A4B1B7813F0080FF8D100F045F8084B1A7842F003021A701A7802F0FC021A7000F03EF808BD00BF596400406A640040E2
:4006C0009964004008B50722064B1A70FFF7DCFFFFF7C8FFFFF7CCFF0023034A13700232137008BD896500408864004008B5054B1B7823B9FFF7E6FF0122024B1A70FFF79D
:4007000099FF08BD6C81FF1F024B186820F07F40704700BF18E000E00230800803D000BF01380046FCD17047EFF3108072B6704780F31088704700BF014B1868704700BF04
:400740003081FF1F0E4B70B51E460E4C0025E41AA410A54204D056F8253098470135F8E700F048F8084B094C1E46E41AA4100025A54204D056F8253098470135F8E770BDB3
:400780000008000000080000000800000808000010B5431E0A44914204D011F8014B03F8014FF8E710BD03460244934202D003F8011BFAE7704700000000000040510040F4
:4007C0003000000001400010001401400006801A0140800100400140000A004C014000020050014020000000001A0140E004004880004300F8B500BFF8BC08BC9E4670472D
:400800004D00000051050000F8B500BFF8BC08BC9E4670472900000028080000C880FF1F70000000380000000000000001000000000000000000000000000000000000002E
:4008400000000000000000000000000000000000F207000000000000000000000000000000000000000000000000000000000000000000000000000000000000000000007F
:4008800000000000000000000000000000000000D080FF1F0000000000000000000000000000000000000000000000000000000000000000000000000000000000000000CA
:4008C00000000000000000000000000000000000000000000000000000000000000000000000000000000000000000000000000000000000000000000000000000000000F8
:4009000000000000000000000000000000000000000000000000000000000000000000000000000000000000000000000000000000000000000000000000000000000000B7
:400940000000000000000000000000000000000000000000000000000000000000000000000000000000000000000000000000000000000000000000000000000000000077
:400980000000000000000000000000000000000000000000000000000000000000000000000000000000000000000000000000000000000000000000000000000000000037
:020000040003F7
:0200000480007A
:4000000004520040036400400365004001070140490801404C0901404B0A0140370B0140040C0140010D01404F1801404F190140041A0140461B0140034001400241014057
:4000400002420140044301400244014006450140054601400347014003480140014C0140074D014004500140015101401001110160806440884789388A7889078A728B0F13
:40008000E602040408020B011C01260427022A02300432023301340135023A803E155441580459045B045C015F0184018A108E018F0190089204940C9501980499019A0AA3
:4000C0009D019E01A001A40CAA10AC01B00CB210B301B401B602BE14BF04C003C105C230C401C5CEC6FDC70BC81FC9FFCAFFCBFFCC22CEF0CF0CD08CD110D418D604D804C7
:40010000D904DA24DB04DC01DD18DF21E840E901EAC0EB01002001400310072408A009800A900F02108111041208162819281A801B401C401D041E041F40210427242E0838
:4001400030A0321439803E20400141044A124B015008518052105A025C085D805E2060046140634065047804840487408948901493089528964097A598409A2C9B019C8469
:400180009D309E10A110A202A408A548A6A0AC01AE50AF10C067C28FC46FCA40CC0ECE28D00AD208D671D84DDE02E208040807010B010C040D01120116011D0126023004D5
:4001C000310132023401360839023E515420580459045B045C185F2180DC8222840C867188108A408B158E038F089133930C941499039B04A010A2ACA933AA20AB04AC09DD
:40020000AD2AAED0AF04B01FB2E0B330B70FB908BA08BB80BF04C002C704C9FFCA07CBFFCC40CD20CEF0CF05D008D608D804D904DA04DB04DC11DD01DF01E040E1A8E2400E
:40024000E320004002100440050406840B600D081108155C170118151A801C401D041F04234027212EC02F0432803620370139203B843DF047205510560458015C805D249C
:400280005F01600161106310644066687804810482408408A202C0F5C22CC4D4CA30CCA8CE3ED020D6F1D8FEDE02E002E204E40139023F0159045F012602000C02030701EC
:4002C000080109040A0E0B080C010E06110A150116031B081E0C1F01290A2A082F0A300F31083301370639803A023F0540424106450C47EB483149FF4AFF4BFF4EF04F44B4
:40030000500C580459045A045C115D015F0166C06A406B028127831885188727891C8B238D3F9004920194079727980299089A019C019D029E06A103A407A501A918AD108C
:40034000B103B31CB538B607BB20D602D804D904DB24DC11DD80DF210521070108200A910D800F20110416041A011B801D011E40212022092304244025C4282029402A20B2
:400380002B802D202E402F0430203240330834403620372539203B853D203E083F20451047014D204E2055085701688069C06A286B1078047A017B01901092849388940142
:4003C00095E4967A972498449A0C9B059C209D809F10A110A340A490A548A6A8A701B069B440B510C0D0C2AFC444CA3FCCFECE6FD0A0D220DE02D401DB04DD10DF010012A4
:400400000140031008200AA310801114120118051B0821102284230129402A282B4031203241330839223B8940044101430848104A084B8053105A085C405E065F20680159
:4004400069146A1070207140722888208B048E019050914092A5938094019524961097219B309C209D409E20A080A120A209A340A430A680A708B584C00FC20FC40FCA0F7E
:40048000CC0FCE0FD007D20CD6F233403620CC309F40A6209F40A62086209F40A620E6407740DE04018007105F809F40C006D6048350878099809B109FC0858099809B1032
:4004C00027409F40C8809B10104088408F109B10C408E201E60200030C0310021C02000F80E7001801440400003C1EC210FF010000C04000010008C300FC400100802000DC
:400500000100020480080000801800000010010000008020601F1FD8000000A00000500443050600020CE00009FFFFFF62A0F0410C000000000002120404040411110001B1
:400540000000000000004002001030100010101200000000000000000000000000000000E2000000000000008000408080008000000000000F0000000000000000FBFB0090
:40058000000000000601010001000000000F0F0000000000000000000000000000000000000000000000000000000000000000000000000000000000000000000000000014
:4005C00000000000000000000000000000000000000000000000000000000000000000000000000000000000000000000000000000000000000000000000000000000000FB
:4006000000000000000000000000000000000000000000000000000000000000000000000000000000000000000000000000000000000000000000000000000000000000BA
:40064000000000000000000000000000000000000000000000000000000000000000000000000000000000000000000000000000000000000000000000000000000000007A
:40068000000000000000000000000000000000000000000000000000000000000000000000000000000000000000000000000000000000000000000000000000000000003A
:0200000490006A
:0400000000004005B7
:0200000490105A
:04000000BC90ACAF55
:0200000490303A
:02000000A35308
:0200000490402A
:4000000000000000000000000000000000000000000000000000000000000000000000000000000000000000000000000000000000000000000000000000000000000000C0
:400040000000000000000000000000000000000000000000000000000000000000000000000000000000000000000000000000000000000000000000000000000000000080
:400080000000000000000000000000000000000000000000000000000000000000000000000000000000000000000000000000000000000000000000000000000000000040
:4000C0000000000000000000000000000000000000000000000000000000000000000000000000000000000000000000000000000000000000000000000000000000000000
:0200000490501A
:0C00000000012E16106900012E1AB3BC7E
:00000001FF