:400000000080002011000000910900009109000008B5044B1A6803F53F5302331A6000F0D7FC00BFFA46004010B5054C237833B9044B13B10448AFF300800123237010BD70
:400040000882FF1F0000000004440000084B10B51BB108490848AFF300800848036803B910BD074B002BFBD0BDE81040184700BF000000000C82FF1F04440000C880FF1FF0
:400080000000000000B591B0084B1A88013292B21A800749684602F071FD684600F03CFD01F01EF911B05DF804FB00BF2482FF1F0844000008B542F2107000F009FA41F28C
:4000C000883001F07DF90D4800F002FA4FF4FA6001F076F90A4800F029F941F2883001F06FF940F61C4000F021F941F2883001F067F900F069F900F06DF908BD6CFDFFFF4F
:40010000F0D8FFFF10B500F09FFA08B9002400E0012400F0A1FA00B1013400F0A5FA00B1013400F0A9FA00B10134204610BD00BFF8B5FFF7E7FF04461A4B1B88B3F5966FE8
:4001400005D908B9FFF7B6FF0022164B1A80022C26DC00F079FA054600F07EFA074600F083FA044600F088FA06462DB127B96FF0310000F0DBF804E01FB115B9322000F03B
:40018000D5F824B11EB9322000F0A2F905E026B11CB96FF0310000F09BF9642001F010F9F8BD00BF2482FF1F08B50138062819D8DFE800F004080D1118181600C82000F07A
:4001C000B5F808BD6FF0C70000F0B0F808BDC82000F07EF908BD6FF0C70000F079F908BDFFF768FF08BD00BF10B590B000F0CEFD90B300F0C5FD04460346184A402168460F
:4002000002F08AFC684600F087FC0A2C02D00B2C03D005E00122124B9A700022104B9A700F4B9B7803F0FF0213B1012A03D011E0FFF77EFF0EE00A4B1B88B3F5966F03D927
:400240000022074B9A7005E00022054B1A802046FFF7AAFF00F0C0F910B010BD1C4400002482FF1FF8B562B600F03CFC00F0EAFF00F0F6FF00F0DEFE00F0EAFE274800F002
:400280003DFD274800F048FC01F068F8254801F00BF800F0C9FD244800F0F0FDFFF70AFFAA2000F061FD00F047F80446C0F3072000F05AFDE0B200F057FD00F061F8044696
:4002C000C0F3072000F050FDE0B200F04DFD00F0DBF90446C0F3072000F046FDE0B200F043FD00F0B1F9074600F0B6F9064600F0BBF9054600F0C0F90446384600F034FDEB
:40030000304600F031FD284600F02EFD204600F02BFDBB2000F028FDC2E700BFD90500002C44000085000000E9010000014B1860704700BF2882FF1F30B591B00D4BB3F9E1
:400340000450284601F094FD0B4901F0E5FD01F047FA01F091F801F0A9FC04B223462A460649684602F00AFC684600F0D5FB204611B030BD2882FF1FCDCC4C3D3444000068
:4003800030B591B00D4DB5F9060001F071FD0C4901F0C2FD01F024FA01F06EF801F086FC04B22346B5F904200649684602F0E6FB684600F0B1FB204611B030BD2882FF1FE5
:4003C000EC51383D504400000022014B9A8070472882FF1F0022014BDA8070472882FF1F10B50446007800F0A9FB207900F0E0FB207A00F0C9FB207B00F0B4FB10BD00BFD6
:4004000008B500F0A7FBB8B900F0DEFBA0B900F0C7FB88B900F0B2FB70B9294B1B68294A134003D5013B63F007030133264800EB0310FFF7D5FF08BD244B1B68002B1EDDAC
:4004400000F0E2FB18B90022204B1A6008BD1C4A1368013313601B48034003D5013B63F007030133184800EB0310FFF7B9FF174B1A68013A1A609A8801329A8008BD002B3B
:400480001DDA00F0B9FB18B90022104B1A6008BD0B4A1368013B13600A48034003D5013B63F007030133084800EB0310FFF798FF064B1A6801321A609A88013A9A8008BDC4
:4004C000CC80FF1F07000080D080FF1F2882FF1F014B9860704700BF2882FF1F10B50446007800F099FB207900F0AAFB207A00F0BBFB207B00F0CCFB10BD00BF08B500F04F
:4005000097FBC0B900F0A8FBA8B900F0B9FB90B900F0CAFB78B92C4BD3F884302B4A134003D5013B63F007030133294800EB0310FFF7D4FF08BD274B9B68002B20DD00F0FC
:400540004BFB18B90022234B9A6008BD1E4AD2F884300133C2F884301C48034003D5013B63F0070301331A4800EB0310FFF7B6FF184B9A68013A9A60DA880132DA8008BDE8
:40058000002B1FDA00F030FB18B90022114B9A6008BD0D4AD2F88430013BC2F884300B48034003D5013B63F007030133084800EB0310FFF793FF074B9A6801329A60DA887B
:4005C000013ADA8008BD00BFCC80FF1F07000080D080FF1F2882FF1F08B5194B1B6813B1FFF70EFF12E000F0B5FA01280BD000F0EBFA012807D000F0D3FA012803D000F03D
:40060000BDFA012802D10F48FFF7EAFE0C4B9B6813B1FFF773FF08BD00F00AFB01280BD000F01AFB012807D000F02AFB012803D000F03AFB012802D10248FFF74FFF08BD04
:400640002882FF1F3482FF1F08B500F035FBB0FA80F0400908BD00BF08B500F01DFCB0FA80F0400908BD00BF08B500F01BFCB0FA80F0400908BD00BF08B500F01BFCB0FA54
:4006800080F0400908BD00BF08B500F0E9FC00F0F3FC00EB4000A0F500500838642303FB00F0074B83FB0023C017C0EBA32000B2642802DC20EAE07008BD642008BD00BF4C
:4006C000353AFC44FEE700BFF0B40022174611E050F82760F3B226F0FF0608E001EB420511F812406D78A5550132013BDBB2002BF4D101371E2FEBD9F0BC7047104B1B7829
:40070000DBB203F007010F4A11701B090132137080220D4B1A7020230C4A1370082102F62312117003321370022209490A7003310B70084B1A704422A3F2E2231A70704791
:40074000CF0100496E5800402D510040FD510040285B0040585B004008B50A46002101F062FD08BD08B501F053FD08BD38B53322324B1A801823324A137042F6DF61023213
:4007800011800232137045F6BF51023211800232137008222B492C48FFF7E4FF02222B4B1A7008224FF040231A70032103F500731970274B1B78DBB226490B70264B1A8026
:4007C00041F25122023B1A80002419250CE0234B1B7803F0010343EA440404F003044FF4F07000F039FE013D0DB1032CEFD115B90320FFF767FF1A4B4FF480721A80072267
:400800001A70002217490A704820023108701A700222033B1A7004220A331A70124A137843F007031370013A137843F003031370013A137843F08003137038BD804000409F
:400840008240004034070048004100400043004008010049A146004022420040254200400440004006400040A243004038B572B6324A137843F00403137000240CE0304D96
:40088000630019194A0011462A44084691882858FFF762FF0134E4B2052CF0D929494FF09040FFF711FF284A137843F0020313701032137843F002031370244C237843F08C
:4008C00040032370A2F58632513A137843F01003137008221E491F48FFF744FF0A221E491E48FFF73FFF08221D491E48FFF73AFF08221D491D48FFF735FF08221C491D485E
:40090000FFF730FF08221C491C48FFF72BFF1C4A137843F0080313701A4D61232B70FFF725FF81232B700122174B1A70FFF7E6FE0E2221461548FFF715FF38BDE8460040A4
:400940006C4400007C00004803500140A0430040000700480251004008070048C051004014070048F25100401C0700481251004024070048225100402C070048325100406A
:40098000224300400048004004000840B043004008B501F011FC03680C2B00D1FEE7FEE708B5094B1A681044084BC31A802B02DC054B186005E001F0FFFB0C2303604FF08A
:4009C000FF32104608BD00BF5481FF1F7082FF1F08B5104E104D16E029686B68AC68002204E051F8040B43F8040B0432A242F8D1E868002203E0002143F8041B04328242AE
:400A0000F9D11035013E002EE6D101F0DBFBFFF729FCFEE7010000001846000008B5104A104B1A60104A136843F40073136000230AE0032B03D80D4A52F8231000E00C4960
:400A40000C4A42F8231001332F2BF2D90A4B1A780A4B1A70074A0A4B1A60FFF707FF08BD0004FA050CED00E014ED00E000000000910900000080FF1FBC760040C080FF1FEE
:400A800008ED00E07222084B1A702022023B1A700622A3F5AF731A70472210331A7000224E331A70704700BF8B65004010B500F0DBFC04460A4A137843F020031370023AA8
:400AC000137843F010031370A2F58072137843F01003137000F050FC204600F0C9FC10BD9B65004008B5054B1B7823B9FFF7CAFF0122024B1A70FFF7D9FF08BD4482FF1FB5
:400B0000034B1B7813F0040FFAD1024B18707047696400404964004038B5074B1B782BB938BDFFF7EDFF0134A4B201E005460024285D0028F5D138BD4482FF1F044A1378E0
:400B400003F0EF03000100F0100018431070704730510040024B1878C0F30010704700BF31510040044A137803F07F03C001C0B218431070704700BF30510040014B1878F5
:400B8000C009704731510040044A137803F0BF03800100F0400018431070704730510040024B1878C0F38010704700BF31510040044A137803F0DF03400100F020001843AF
:400BC0001070704730510040024B1878C0F34010704700BF31510040024B1878C0F38010704700BF21510040024B1878C0F34010704700BF21510040024B1878C0F3C00045
:400C0000704700BF21510040024B1878C0F30010704700BF21510040044A137803F0FE0300F0010018431070704700BF30510040024B187800F00100704700BF31510040EE
:400C4000044A137803F0FD03400000F0020018431070704730510040024B1878C0F34000704700BF31510040044A137803F0FB03800000F00400184310707047305100408A
:400C8000024B1878C0F38000704700BF31510040044A137803F0F703C00000F0080018431070704730510040024B1878C0F3C000704700BF31510040024B1878C0F30010F3
:400CC000704700BF11510040014B1B68D864704708ED00E04001C0B2014B1870704700BF03E400E00822014B1A60704700E100E00822014B1A60704780E100E010B5044622
:400D0000FFF7F6FF2046FFF7DFFF0720FFF7E2FFFFF7E8FF10BD00BF08B500F0A5FB0A4A137843F020031370FC32137843F010031370FE3A137843F01003137000F098FB91
:400D40000422024B1A6008BD9A64004000E100E0014B1878704700BF66650040014B1878704700BF68640040034B1B7813F0020FFAD0024B18707047666500404A640040C3
:400D8000014B1878704700BF5A640040044B1B7813F0080F01D0012070470020704700BF6864004008B501E00A4B1B780A4B1B7813F0080FF8D100F057FB084B1A7842F0F2
:400DC00003021A701A7802F0FC021A7000F050FB08BD00BF5A640040686400409A64004010B507240C4B1C7004220C4B1A600C49022000F005FB2146022000F015FBFFF7A1
:400E0000D1FFFFF7A5FFFFF7A9FF0022054B1A700822FE3B1A7010BD8A64004080E100E0450E00008665004008B5054B1B7823B9FFF7D6FF0122024B1A70FFF76DFF08BD9F
:400E40004682FF1F704700BF014B1B681865704708ED00E04001C0B2014B1870704700BF04E400E01022014B1A60704700E100E01022014B1A60704780E100E010B504460A
:400E8000FFF7F6FF2046FFF7DFFF0720FFF7E2FFFFF7E8FF10BD00BF014B1878C009704711510040024B1878C0F38010704700BF11510040024B1878C0F34010704700BF1A
:400EC0001151004008B50A280FD00C2802D0082806D102E04FF4805209E04FF4807206E0002000F06BFA002201E04FF480620021094B198041F2883342F2107000FB0233FD
:400F0000064A82FB0302DB17C3EB2233044A1360044B198008BD00BF5C82FF1FAD8BDB685482FF1F5882FF1F38B500F09DFA04461F4A137843F0010313701032137843F0EE
:400F4000010313701A3A137843F0020313701032137843F00203137002F5AA521232137803F0FE0343F0020313700422114B1A70013B1A7842F040021A701A7802F0FC02FD
:400F80001A70C822053B1A700225A3F597530C3B1D70094A137843F0080313700A2000F025FA064B1D60204600F062FA38BD00BFAB43004006590040275B004080E200E099
:400FC00010B504460A280DD00C2802D0082804D101E0C42207E0442205E0002000F0EEF9C42200E08422034B1A702046FFF76AFF10BD00BF0259004008B5102000F0CAF908
:401000000721012000F010FA0749012000F0F8F9064A137843F0060313700C20FFF7D0FF0022034B1A8008BDD1100000015900405A82FF1F08B5054B1B7823B9FFF7DCFFFF
:401040000122024B1A70FFF76FFF08BD4782FF1F024A137843F001031370704700590040034B188880B2034B1B88C01A00B27047A05B00405882FF1F10B4124B1B881BB26D
:4010800033B1104B1B881BB203EB83035C0001E00D4B1C680D4B1988411A09B242F2107303FB01F2002903DD04EBD470401003E004EBD47040104042831893FBF4F000B20A
:4010C00010BC70475C82FF1F5482FF1F5A82FF1F704700BF08B50A280FD00C2802D0082806D102E04FF4805209E04FF4807206E0002000F063F9002201E04FF48062002182
:40110000094B198041F2883342F2107000FB0233064A82FB0302DB17C3EB2233044A1360044B198008BD00BF6082FF1FAD8BDB686482FF1F6282FF1F10B500F095F90446EE
:401140001F4A137843F0020313701032137843F0020313701A3A137843F0010313701032137843F00103137002F5AA521A32137803F0FE0343F0020313700422114B1A7093
:40118000013B1A7842F040021A701A7802F0FC021A70C822053B1A700222A3F59753123B1A70094A137843F0080313700A2000F01DF90122054B1A60204600F059F910BDF5
:4011C000AB4300400E5900402F5B004080E200E010B504460A280DD00C2802D0082804D101E0C42207E0442205E0002000F0E6F8C42200E08422034B1A702046FFF76AFFF5
:4012000010BD00BF0A59004008B5102000F0CCF80721002000F008F90749002000F0F0F8064A137843F0060313700C20FFF7D0FF0022034B1A8008BD7112000009590040DE
:401240006882FF1F08B5054B1B7823B9FFF7DCFF0122024B1A70FFF76FFF08BD4882FF1F024A137843F001031370704708590040704700BF014B1B685865704708ED00E097
:401280004001C0B2014B1870704700BF05E400E02022014B1A60704700E100E02022014B1A60704780E100E010B50446FFF7F6FF2046FFF7DFFF0720FFF7E2FFFFF7E8FFD9
:4012C00010BD00BF024A137843F080031370704774650040014B1870704700BF84650040014B1878704700BF64650040014B1860704700BF24650040014B1868704700BF6F
:4013000044650040014B1860704700BF0465004008B501E0FFF7F0FFFFF7E2FF10F0080FF8D108BD10B50B4C2046FFF7DFFF2046FFF7E8FF00F098F8074A137843F01003A7
:40134000137000F095F8FFF7E3FF0120FFF7C2FF10BD00BFFF356E019465004008B5054B1B7823B9FFF7DEFF0122024B1A70FFF7A9FF08BD4982FF1F054A137843F00103AF
:4013800013701032137843F001031370704700BFA2430040034B1A7800F0F80010431870704700BF06410040034B1A7800F0F80010431870704700BF0241004001BE7047D6
:4013C00010B5044605E0084B186800F045F8A4F50044B4F5004FF6D8034B586800FB04F000F03AF810BD00BF5881FF1F08B5034B1B7A00FB03F000F02FF808BD5881FF1F53
:4014000070B504460E46074B1D681F2802D90020FFF7D4FF04F01F04103455F8240045F8246070BD08ED00E038B504460D46072902D90020FFF7C2FF1F2C02D90020FFF7D0
:40144000BDFF04F01F0000F1604000F564406D01EDB2057038BD00BF0230800803D000BF01380046FCD17047EFF3108072B6704780F31088704700BFF8B5C1F30A56A6F2C3
:40148000FF35132D0A460B460446864611DC002D2EDB0F461F4929410A4225D04FF400232B413B4423EA01030026194634462046F8BD332D05DDB5F5806F1FD01146204673
:4014C000F8BDA6F213464FF0FF3121FA06F63042F4D00122C5F1330502FA05F52D1828BF9B1825EA0606E0E70028D7D11146E6E7013501F0004307D00026D6E702460B4611
:4015000000F010F80446D2E743F07F5343F440130026CAE7FFFF0F0081F0004102E000BF83F0004330B54FEA41044FEA430594EA050F08BF90EA020F1FBF54EA000C55EA05
:40154000020C7FEA645C7FEA655C00F0E2804FEA5454D4EB5555B8BF6D420CDD2C4480EA020281EA030382EA000083EA010180EA020281EA0303362D88BF30BD11F0004F6F
:401580004FEA01314FF4801C4CEA113102D0404261EB410113F0004F4FEA03334CEA133302D0524263EB430394EA050F00F0A780A4F10104D5F1200E0DDB02FA0EFC22FA0F
:4015C00005F2801841F1000103FA0EF2801843FA05F359410EE0A5F120050EF1200E012A03FA0EFC28BF4CF0020C43FA05F3C01851EBE37101F0004507D54FF0000EDCF1C3
:40160000000C7EEB00006EEB0101B1F5801F1BD3B1F5001F0CD349085FEA30004FEA3C0C04F101044FEA445212F5800F80F09A80BCF1004F08BF5FEA500C50F1000041EBFA
:40164000045141EA050130BD5FEA4C0C404141EB010111F4801FA4F10104E9D191F0000F04BF01460020B1FA81F308BF2033A3F10B03B3F120020CDA0C3208DD02F1140C38
:40168000C2F10C0201FA0CF021FA02F10CE002F11402D8BFC2F1200C01FA02F120FA0CFCDCBF41EA0C019040E41AA2BF01EB0451294330BD6FEA04041F3C1CDA0C340EDC71
:4016C00004F11404C4F1200220FA04F001FA02F340EA030021FA04F345EA030130BDC4F10C04C4F1200220FA02F001FA04F340EA0300294630BD21FA04F0294630BD94F097
:40170000000F83F4801306BF81F480110134013D4EE77FEA645C18BF7FEA655C29D094EA050F08BF90EA020F05D054EA000C04BF1946104630BD91EA030F1EBF00210020E7
:4017400030BD5FEA545C05D14000494128BF41F0004130BD14F580043CBF01F5801130BD01F0004545F0FE4141F470014FF0000030BD7FEA645C1ABF194610467FEA655C44
:401780001CBF0B46024650EA013406BF52EA033591EA030F41F4002130BD00BF90F0000F04BF0021704730B54FF4806404F132044FF000054FF0000150E700BF90F0000F14
:4017C00004BF0021704730B54FF4806404F1320410F0004548BF40424FF000013EE700BF42004FEAE2014FEA31014FEA02701FBF12F07F4393F07F4F81F06051704792F063
:40180000000F14BF93F07F4F704730B54FF4607401F0004521F0004120E700BF50EA010208BF704730B54FF000050AE050EA010208BF704730B511F0004502D5404261EB1B
:4018400041014FF4806404F132045FEA915C3FF4DCAE4FF003025FEADC0C18BF03325FEADC0C18BF033202EBDC02C2F1200300FA03FC20FA02F001FA03FE40EA0E0021FA2E
:4018800002F11444C1E600BF70B54FF0FF0C4CF4E06C1CEA11541DBF1CEA135594EA0C0F95EA0C0F00F0DEF82C4481EA030621EA4C5123EA4C5350EA013518BF52EA0335DB
:4018C00041F4801143F4801338D0A0FB02CE4FF00005E1FB02E506F00042E0FB03E54FF00006E1FB03569CF0000F18BF4EF0010EA4F1FF04B6F5007F64F5407404D25FEABC
:401900004E0E6D4146EB060642EAC62141EA55514FEAC52040EA5E504FEACE2EB4F1FD0C88BFBCF5E06F1ED8BEF1004F08BF5FEA500E50F1000041EB045170BD06F00046CF
:4019400046EA010140EA020081EA0301B4EB5C04C2BFD4EB0C0541EA045170BD41F480114FF0000E013C00F3AB8014F1360FDEBF002001F0004170BDC4F10004203C35DAA5
:401980000C341BDC04F11404C4F1200500FA05F320FA04F001FA05F240EA020001F0004221F0004110EBD37021FA04F642EB06015EEA430E08BF20EAD37070BDC4F10C0440
:4019C000C4F1200500FA04F320FA05F001FA04F240EA020001F0004110EBD37041F100015EEA430E08BF20EAD37070BDC4F1200500FA05F24EEA020E20FA04F301FA05F25D
:401A000043EA020321FA04F001F0004121FA04F220EA020000EBD3705EEA430E08BF20EAD37070BD94F0000F0FD101F00046400041EB010111F4801F08BF013CF7D041EA5C
:401A4000060195F0000F18BF704703F00046520043EB030313F4801F08BF013DF7D043EA0603704794EA0C0F0CEA135518BF95EA0C0F0CD050EA410618BF52EA4306D1D15C
:401A800081EA030101F000414FF0000070BD50EA410606BF1046194652EA430619D094EA0C0F02D150EA013613D195EA0C0F05D152EA03361CBF104619460AD181EA030130
:401AC00001F0004141F0FE4141F470014FF0000070BD41F0FE4141F4780170BD70B54FF0FF0C4CF4E06C1CEA11541DBF1CEA135594EA0C0F95EA0C0F00F0A7F8A4EB0504DD
:401B000081EA030E52EA03354FEA013100F088804FEA03334FF0805545EA131343EA12634FEA022245EA111545EA10654FEA00260EF000419D4208BF964244F1FD0404F537
:401B4000407402D25B084FEA3202B61A65EB03055B084FEA32024FF480104FF4002CB6EB020E75EB030E22BFB61A754640EA0C005B084FEA3202B6EB020E75EB030E22BF3C
:401B8000B61A754640EA5C005B084FEA3202B6EB020E75EB030E22BFB61A754640EA9C005B084FEA3202B6EB020E75EB030E22BFB61A754640EADC0055EA060E18D04FEA18
:401BC000051545EA16754FEA06164FEAC30343EA52734FEAC2025FEA1C1CC0D111F4801F0BD141EA00014FF000004FF0004CB6E711F4801F04BF01430020B4F1FD0C88BFE9
:401C0000BCF5E06F3FF6AFAEB5EB030C04BFB6EB020C5FEA500C50F1000041EB045170BD0EF0004E4EEA113114EB5C04C2BFD4EB0C0541EA045170BD41F480114FF0000E27
:401C4000013C90E645EA060E8DE60CEA135594EA0C0F08BF95EA0C0F3FF43BAF94EA0C0F0AD150EA01347FF434AF95EA0C0F7FF425AF104619462CE795EA0C0F06D152EAF7
:401C800003353FF4FDAE1046194622E750EA410618BF52EA43067FF4C5AE50EA41047FF40DAF52EA43057FF4EBAE12E74FEA410212F5001215D211D56FF47873B3EB625254
:401CC00012D94FEAC12343F0004343EA505311F0004F23FA02F018BF404270474FF00000704750EA013005D111F0004008BF6FF0004070474FF00000704700BF80F000402D
:401D000002E000BF81F0004142001FBF5FEA410392EA030F7FEA226C7FEA236C6AD04FEA1262D2EB1363C1BFD218414048404140B8BF5B42192B88BF704710F0004F40F43F
:401D4000000020F07F4018BF404211F0004F41F4000121F07F4118BF494292EA030F3FD0A2F1010241FA03FC10EB0C00C3F1200301FA03F100F0004302D5494260EB400028
:401D8000B0F5000F13D3B0F1807F06D340084FEA310102F10102FE2A51D2B1F1004F40EBC25008BF20F0010040EA03007047490040EB000010F4000FA2F10102EDD1B0FAAD
:401DC00080FCACF1080CB2EB0C0200FA0CF0AABF00EBC25052421843BCBFD0401843704792F0000F81F4000106BF80F400000132013BB5E74FEA41037FEA226C18BF7FEA24
:401E0000236C21D092EA030F04D092F0000F08BF0846704790EA010F1CBF0020704712F07F4F04D1400028BF40F00040704712F100723CBF00F50000704700F0004343F0B2
:401E4000FE4040F4000070477FEA226216BF08467FEA23630146420206BF5FEA412390EA010F40F4800070474FF0000304E000BF10F0004348BF40425FEA000C08BF7047C4
:401E800043F0964301464FF000001CE050EA010208BF70474FF000030AE000BF50EA010208BF704711F0004302D5404261EB41015FEA010C02BF84460146002043F0B64394
:401EC00008BFA3F18053A3F50003BCFA8CF2083AA3EBC25310DB01FA02FC634400FA02FCC2F12002BCF1004F20FA02F243EB020008BF20F00100704702F1200201FA02FCD1
:401F0000C2F1200250EA4C0021FA02F243EB020008BF20EADC7070474FF0FF0C1CEAD0521EBF1CEAD15392EA0C0F93EA0C0F6FD01A4480EA010C400218BF5FEA41211ED0C5
:401F40004FF0006343EA501043EA5111A0FB01310CF00040B1F5000F3EBF490041EAD3715B0040EA010062F17F02FD2A1DD8B3F1004F40EBC25008BF20F00100704790F07B
:401F8000000F0CF0004C08BF49024CEA502040EA51207F3AC2BFD2F1FF0340EAC250704740F400004FF00003013A5DDC12F1190FDCBF00F000407047C2F10002410021FADD
:401FC00002F1C2F1200200FA02FC5FEA310040F1000053EA4C0308BF20EADC70704792F0000F00F0004C02BF400010F4000F013AF9D040EA0C0093F0000F01F0004C02BF6B
:40200000490011F4000F013BF9D041EA0C018FE70CEAD15392EA0C0F18BF93EA0C0F0AD030F0004C18BF31F0004CD8D180EA010000F00040704790F0000F17BF90F0004FB7
:40204000084691F0000F91F0004F14D092EA0C0F01D142020FD193EA0C0F03D14B0218BF084608D180EA010000F0004040F0FE4040F40000704740F0FE4040F440007047FD
:402080004FF0FF0C1CEAD0521EBF1CEAD15392EA0C0F93EA0C0F69D0A2EB030280EA010C49024FEA402037D04FF0805343EA111143EA10130CF000408B4238BF5B0042F10C
:4020C0007D024FF4000C8B4224BF5B1A40EA0C00B3EB510F24BFA3EB510340EA5C00B3EB910F24BFA3EB910340EA9C00B3EBD10F24BFA3EBD10340EADC001B0118BF5FEA60
:402100001C1CE0D1FD2A3FF650AF8B4240EBC25008BF20F0010070470CF0004C4CEA50207F32C2BFD2F1FF0340EAC250704740F400004FF00003013A37E792F0000F00F09A
:40214000004C02BF400010F4000F013AF9D040EA0C0093F0000F01F0004C02BF490011F4000F013BF9D041EA0C0195E70CEAD15392EA0C0F08D142027FF47DAF93EA0C0F1A
:402180007FF470AF084676E793EA0C0F04D14B023FF44CAF08466EE730F0004C18BF31F0004CCAD130F000427FF45CAF31F000437FF43CAF5FE700BF014B1868704700BF23
:4021C000C881FF1F0E4B70B51E460E4C0025E41AA410A54204D056F8253098470135F8E702F008FA084B094C1E46E41AA4100025A54204D056F8253098470135F8E770BDBD
:402200000046000000460000004600000846000010B5431E0A44914204D011F8014B03F8014FF8E710BD03460244934202D003F8011BFAE770472DE9F04788B0149F002BCF
:402240001E461299B8BF03F1004327F02007B6BF1E4600232D23462F1446109DDDF84CA00B7003D0452F03D1013501E0032300E0022307AA049206AA03928DE8280422466D
:40228000334600F035FD472F804602D1119BDB0728D5462F08EB050911D198F80030302B0AD1002200232046314602F063F818B9C5F10105CAF80050DAF80030994400228C
:4022C00000232046314602F055F808B9302202E0CDF81C9006E0079B994503D9591C07911A70F8E74046079B159AC8EB0303136008B0BDE8F087034673B50029B8BF49420E
:4023000003F8022BB4BF2D222B22092942701ADD0DF1070216460A2591FBF5F405FB1411092C01F1300102F8011D2146F4DC3031541E02F8011CB4421A460AD214F8012B64
:4023400003F8012BF7E71A463024214402F8024B5970101A02B070BD2DE9F04F91B00C46DDF8688016461F46054601F059FA03681846099300F026FC00230E93D8F80030F6
:402380000A90073323F0070303F1080294F81890D4F800B0C8F80020D3E90023C4E91223D4F84CA0D4F848802AF000430B934FF0FF32A74B40460B9902F00EF8A0B94FF07A
:4023C000FF32A34B40460B9901F0E8FF60B9002200234046514601F0D7FF10B12D2384F843309C4B9C4A0AE0424653464046514601F0F2FF002800F09281984B984AB9F109
:40240000470F8CBF90469846032323612BF0040323604FF0000A3DE0B9F1670F00F08A81B9F1470F00F0868123600193636800210DF13302059002920093424653460691D6
:40244000CDF81090CDF80CE02846FFF7F4FE09F0DF03472B804600F08481B9F1650F0D9900F28D8101394A4604F150000D91FFF742FF0E9A82468318012A236100F37C8196
:402480002268D10700F178819DF8333013B12D2384F84330009733460FAA2146284600F09FF9013002D14FF0FF3096E123685A0501D4236965E0B9F1650F40F2D580D4E9D4
:4024C00012010022002301F055FF78B30123654A31462846B8470130E5D00E9B0D9A9A420BDB2368D80708D423689B0740F111814FF0000804F1190906E10A9B099A31462B
:402500002846B8470130CED04FF0000804F11A090E9B013B9845E7DA01234A4631462846B8470130BFD008F10108F1E70D9B002B29DC01234B4A31462846B8470130B2D023
:402540000D9B23B90E9B13B92368D907CCD50A9B099A31462846B8470130A4D04FF0000904F11A0A0D9B5B42994509DA0123524631462846B847013095D009F10109F1E70C
:402580000E9B4246A7E00E9AA36D9A42A8BF1A46002A914606DC4FF0000A29EAE97904F11A0B11E01346314642462846B8470130F1D178E701235A4631462846B84701306C
:4025C0003FF471AF0AF1010AA36DC9EB03029245F0DB08EB03090D9A0E9B9A420FDB2368DA070CD40E9B0D9A9844C9EB08089B1A9845A8BF9846B8F1000F08DC0FE00A9BBF
:40260000099A31462846B8470130EBD14BE743464A4631462846B84701303FF444AF4FF0000928EAE87804F11A0A09E00123524631462846B84701303FF435AF09F10109F8
:402640000D9A0E9B9B1AC8EB03039945EEDB4BE7FFFFEF7F92440000964400009A4400009E440000A24400000E9A012A01DCDB0738D50123424631462846B84701303FF46E
:4026800012AF0A9B099A31462846B84701303FF40AAFD4E912010022002301F06BFE20B14FF0000804F11A090EE00E9B08F10102013B19E001234A4631462846B8470130E0
:4026C0003FF4F1AE08F101080E9B013B9845F1DB534604F1500231462846B84701307FF403AFE0E64246012331462846B8470130EED1D8E601234A4631462846B847013091
:402700003FF4D1AE08F10108E3680F9A9B1A9845F0DBE0680F9B9842B8BF18465DE062680EA8531C0DF1340E4BF480637FF474AE062201E012B90122626075E60021069104
:402740000DF133018DE80C00236005904246CDF81090CDF80CE0029153462846FFF76BFD80460D9BD81C02DB626893421DDDA9F102095FFA89F970E60133236184E6B9F17E
:40278000660F14D10029636807DD216113B92268D2071DD501330B4419E013B92268D00701D5023313E0012311E04FF067090D9B0E9A934205DB22682361D10708D50133DD
:4027C00005E0002BD4BFC3F102030123134423610D9B4FF0000AA36556E611B0BDE8F08F2DE9F04791461F460A698B6806469342B8BF1346C9F8003091F843200C46DDF880
:40280000208012B10133C9F800302368990642BFD9F800300233C9F80030256815F0060510D104F1190A07E00123524639463046C04701301AD00135E368D9F800209B1A47
:402840009D42F1DB94F843302268003318BF012392060FD5E118302081F843005A1C94F845102244023382F8431003E04FF0FF30BDE8F08704F1430239463046C0470130E2
:40288000F4D02268D9F80050E36802F00602042A08BF5D1B2269A3680CBF25EAE57500259342C4BF9B1AED184FF000091A344D4509D00123224639463046C0470130D5D097
:4028C00009F10109F3E70020BDE8F0872DE9F04317460A7E85B06E2A984606460C460C9B01F1430E00F0AE8011D8632A22D009D8002A00F0BB80582A40F0CA8081F84520C7
:40290000834955E0642A1ED0692A1CD0C0E0732A00F0B08009D86F2A2ED0702A40F0B8800A6842F020020A603EE0752A24D0782A3AD0ADE01A6801F14205111D19601368CD
:4029400084F84230A8E021681A6811F0800F02D0111D196008E011F0400F02F10401196002D0B2F9003000E01368002B3CDA2D225B4284F8432037E021681A6811F0800F5E
:4029800002D0111D196007E011F0400F02F10401196001D0138800E01368227E5C496F2A14BF0A2208221BE078225A4984F845202268186812F0800F00F104051D6003D129
:4029C000550601D5038800E00368D00744BF42F0200222601BB9226822F0200222601022002084F8430001E049490A226568002DA56008DB206820F0040020602BB9002D4D
:402A00007DD175460CE0002B79D07546B3FBF2F002FB1033CB5C05F8013D03460028F5D1082A0BD12368DA0708D5236962689A42DEBF302305F8013C05F1FF35C5EB0E036B
:402A400023612EE008681A6810F0800F496903D0101D1860136808E010F0400F02F104001860136801D0198000E0196000232361754616E01A68111D1960156800216268D1
:402A8000284600F0D9FE08B1401B6060636804E004F1420584F8422001232361002384F84330CDF800803B4603AA21463046FFF797FE013002D14FF0FF3026E023692A463B
:402AC00039463046C0470130F5D023689B0710D5002504F1190907E001234A4639463046C0470130E7D00135E368039A9B1A9D42F2DBE068039B9842B8BF184605E00B789B
:402B000004F1420584F842308AE705B0BDE8F083A4440000B54400000CB430B5164B0C1E9DB01D6804DA8B232B604FF0FF301EE04FF40273ADF814300CBF234604F1FF33CB
:402B4000049307934FF6FF7302900690ADF81630209A21AB02A92846019301F063FA431CBCBF8B232B6014B1029B00221A701DB0BDE8304002B07047C881FF1F0EB400B58F
:402B80004FF402719CB0ADF814106FF00041049107914FF6FF711DAB02900690084853F8042BADF81610006802A9019301F03AFA029B00221A701CB05DF804EB03B07047B4
:402BC000C881FF1F034613F8012B002AFBD1181A013870472DE9F74F03690C6980469C427FDC013C01F114074FEA840E00F1140606EB0E0357F82450019356F82430013549
:402C0000B3FBF5F507EB0E09C5B34FF0000A3846B446D34650F8043B9AB205FB02A21B0C4FEA124A05FB03A392B2C2EB0B0BBCF800204FEA134A5A441FFA83FBDCF800301E
:402C40008145CBEB134303EB224392B242EA03424FEA234B4CF8042BDCD256F80E306BB9019B043B9E421A4602D3C8F8104005E01268043B002AF8D1013CF3E7404600F0E4
:402C8000F6FF00282BDB304601354FF0000E57F8042B036891B2C1EB0E0E120C99B27144C2EB134303EB214389B24FEA234EB94541EA034340F8043BE9D256F8242006EB88
:402CC000840362B9043B9E421A4602D3C8F8104005E01268043B002AF8D1013CF3E7284600E0002003B0BDE8F08F0000000000002DE9F04F456A95B08246219CCDE9022338
:402D000045B9102000F090FDCAF82400456085600560C560DAF82430196859B15A68012393404A608B60504600F0C9FDDAF8243000221A60039BA04A002BBDBF012323600B
:402D4000039B0023BCBF23F000430393DDF80C80A8BF236028F000431B0D1B0593421DD142F20F73209A1360029B43B9934A944BC8F31300002814BF1846104600E090480D
:402D8000229B002B00F04685C37813B100F1080300E0C31C229A136000F03CBDDDE90245002200232046294601F0E4FA074658B1209A01231360229B002B00F01E858148BD
:402DC0001860013800F026BD12AB019313AB009322462B46504600F0C5FFC8F30A56049056B1C5F3130343F07F51204641F44011A6F2FF3611971DE0139B129E1E4406F2ED
:402E00003243202B0ADD029A06F21240C3F1400322FA00F008FA03F3184304E0C3F12000029B03FA00F0FEF7B9FC0123A1F1F871013E11930022644BFEF772FB58A3D3E9D7
:402E40000023FEF721FD58A3D3E90023FEF76AFB044630460D46FEF7B1FC55A3D3E90023FEF712FD02460B4620462946FEF75AFB04460D46FEF71AFF002283460023204681
:402E8000294601F081FA58B15846FEF797FC02460B462046294601F06DFA08B90BF1FF3BBBF1160F0DD8DDE90223484901EBCB01D1E9000101F086FA30B10BF1FF3B0023FB
:402EC00000E00123109300E01090129B9E1B731E079343BFC3F10008002307934FF00008BBF1000F06DB079BCDF82CB05B440793002705E00023CBEB0808CBF100070B93EA
:402F00001E9B092B28D8052BC4BF043B1E931E9BC8BF0025A3F10203D8BF0125032B20D8DFE803F0060E0204012302E0012308E000230A931F9B002B1DDD9946059321E023
:402F400000230A931F9B0BEB030909F10103012B0593B8BF012315E0012500231E930A9501E001230A934FF0FF390022CDF8149012231F9206E04FF001094B46CDF8149037
:402F8000CDF87C90DAF8244000226260042101F114029A421CD86268490001326260F6E761436F63A787D23FB3C8608B288AC63FFB799F501344D33F0000F07FC64400002D
:402FC000CF440000A34400000000F83FE04400006168504600F03EFCDAF8243020601B680693059B0E2B00F25B81002D00F05881DDE90234BBF1000FCDE90E3430DD9F4AEF
:403000000BF00F034FEA2B1502EBC303E80618CBCDE908340CD5DDE90E01994B05F00F05D3E90823FEF75AFD0324CDE9020100E00224934E6DB1E90708D5DDE90801D6E97E
:403040000023FEF721FCCDE9080101346D100836F0E7DDE90823DDE90201FEF73FFD20E0CBF1000505B3DDE90E01844B05F00F0203EBC203D3E90023FEF706FCCDE9020145
:403080007F4E2D110023022455B1EA0705D5D6E90023FEF7F9FB013401236D100836F3E71BB1CDE9020100E00224109BE3B1DDE902560022734B2846314601F065F998B1ED
:4030C000059B8BB1B9F1000F40F3E6800BF1FF330893314600226C4B2846FEF7D5FB0134CDE902014E4602E0059ECDF820B02046FEF764FBDDE90223FEF7C6FB634B00228F
:40310000FEF710FAA1F1507304460C931D46D6B9DDE9020100225E4BFEF702FA22460C9BCDE9020101F04EF9002840F03F820C99224601F10043DDE9020101F025F9002880
:4031400040F02B82A8E00A9A4C4B711E002A49D003EBC103D3E9002300204E49FEF7BEFC22462B46FEF7DCF9CDE90C01069CDDE90201FEF79BFD0546FEF720FB02460B4694
:40318000DDE90201FEF7CCF9DDE90C23303504F8015BCDE9020101F0F7F8002840F01D83DDE9022300203749FEF7BAF9DDE90C2301F0EAF8002840F0D180069BE31AB34212
:4031C0006ADADDE90C0100222F4BFEF75DFB0022CDE90C01DDE902012B4BFEF755FBCDE90201C4E703EBC1012246D1E900012B46FEF74AFB069BCDE90C011D469C19DDE942
:403200000201FEF753FD0646FEF7D8FA02460B46DDE90201FEF784F9303605F8016BAC42CDE902014FF0000222D11A4BDDE90C01FEF778F902460B46DDE9020101F0C2F80A
:40324000002840F08B80DDE90C2300201149FEF767F902460B46DDE9020101F095F8D8B114F8013C621E302B40F0B7821446F7E7054BFEF709FBCDE90201C0E7E04400002C
:40328000B84500000000F03F0000244000001C40000014400000E03FDDE90E34CDE90234139B002B7CDBBBF10E0F79DCAB4B03EBCB03D3E900671F9B002B14DA059B002BFA
:4032C00011DC40F06C810022A54B30463946FEF7DBFADDE9022301F06BF8059D2E46002840F05F8165E1069CDDE9028932463B4640464946FEF7F2FBFEF7D8FC0546FEF734
:403300005DFA32463B46FEF7BFFA0B46024649464046FEF705F905F1300E069B04F801EBC3EB040E059B73452DD102460B46FEF7F9F88046894602460B463046394601F088
:4033400023F878B942464B463046394601F012F8002800F04482EB0704D440E2DDF820B000E01C4614F8012C631E392A07D1069A9A42F6D1069930220BF1010B0A701A780A
:4033800001321A702BE20022764BFEF77DFA002200238046894600F0EDFF0028A6D01EE20A9A002A2BD01E9A012A0ADC119A12B103F2334302E0129BC3F136033D464446AC
:4033C00013E0059B5D1EAF42BFBF0B9BEA1B9B180B93059BB6BF2F467D1B0025002BA7BF4446059BC3EB08040023079A01211A4450469844079200F001FB064602E03D46AC
:4034000044460A9E5CB1079B002B08DDA342A8BF2346079AC3EB0808E41AD31A0793002F1DDD0A9BABB18DB131462A46504600F07FFB049A01460646504600F0E8FA04997D
:403440000890504600F03BFA089B04937A1B06D000E03A460499504600F06AFB04900121504600F0CBFA0B9B05465BB31A460146504600F05DFB1E9B0546012B18DC029B26
:4034800083B9039BC3F3130373B9039B23F000473F0D3F054FB1079B08F1010801330793012702E0002700E0029F0B9B73B100E000272B6905EB8303186900F052FAC0F145
:4034C000200004E01E9B012BD9DD0B9F0120079B184410F01F0008D0C0F12003042B02DDC0F11C0002E006D018461C30079B8044034404440793B8F1000F05DD424604990E
:40350000504600F063FB0490079B002B05DD29461A46504600F05AFB0546109B23B32946049800F0A4FB00281EDA00230A220499504600F0DBF90A9B0BF1FF3B0490002B54
:4035400000F05F81314600230A22504600F0CEF9B9F1000F06463FDC3BE000BFE04400000000144000002440059B002B2BDC1E9B022B28DDDDF81490B9F1000F11D1294652
:403580004B460522504600F0B1F901460546049800F06DFB00280CDC03E0354600E000252E461F9B069C6FEA030B09E03546DDF820B0069B069A5C1C312313700BF1010B52
:4035C00005960026F7E00A9BDDF8149023B9069CB2E01E9B022BCFDC002C05DD31462246504600F0F3FA06469FB17168504600F031F90446326906F10C01023292000C3004
:40360000FEF706FE01222146504600F0DFFA059000E00596029B069F03F00103079329460498FFF7D7FA3146044600F13008049800F01DFB059A02902946504600F033FB11
:40364000C36802463BB901460A90049800F00FFB0A9A034600E00123114650460A9300F02EF90A9B53B91E9A42B9079A32B9B8F1390F2AD0029B002B1CDC1DE0029A002A7C
:4036800004DB1BD11E9ACAB9079ABAB9002B13DD01220499504600F099FA2946049000F0E6FA002803DC07D118F0010F04D0B8F1390F0AD004F131087C1C0CE0002B07F1BE
:4036C00001040BDDB8F1390F03D139233B70013756E008F1010887F800806CE0069B2746E31A4B4504F8018C3BD000230A220499504600F0FBF8059B04909E424FF00A0263
:403700004FF000033146504604D100F0EFF80646059084E700F0EAF8002306460A220599504600F0E3F8059079E700230A220499504600F0DBF8049029460498FFF74AFAC3
:40374000069B00F1300804F8018BE31A4B45ECDB069B0596B9F1010FACBF4B4401331F46002601220499504600F030FA2946049000F07DFA002803DC15D118F0010F12D033
:403780003C4614F8013C621E392B09D1069B934204D10BF1010B3123069A02E01446F0E70133137007E03C4614F8013C621E302B01D11446F8E72946504600F080F8059BCA
:4037C0006BB12EB19E4203D03146504600F077F80599504600F073F801E0DDF820B00499504600F06CF80023209A23700BF101031360229B1BB11C6001E008480AE0069872
:4038000008E0B9F1000F3FF7E2AE1E9B022B7FF7DEAEB1E615B0BDE8F08F00BFA244000000487047CC81FF1F024B0146186800F041BB00BFC881FF1F10B5C9B2024490422C
:40384000034605D01C7801308C42F8D1184610BD002010BD70B5456A04460E463DB91020FFF7E2FF6062456085600560C560656AEB6843B1636ADB6853F8260078B1026847
:4038800043F8262017E021220421204600F0B8FA636AE860DB68002BECD1002070BD012101FA06F56A1D9200204600F0A9FA0028F3D04660856000230361C36070BD70B5F7
:4038C000446A06460D463CB91020FFF7ADFF7062446084600460C4603DB1736A6A68DB6853F82210296043F8225070BD2DE9F04106460C460D691F4601F1140E0023DEF845
:403900000000013381B202FB0171000C0F0C02FB007089B201EB00419D424FEA10474EF8041BECDCD7B1A3689D4212DB616830460131FFF78FFF8046226904F10C0102323E
:4039400092000C30FEF764FC21463046FFF7B7FF444604EB850301355F6125612046BDE8F081030C1B0413B90004102300E0002310F07F4F04BF0002083310F0704F04BF1E
:403980000001043310F0404F04BF80000233002803DB420003D5581C70471846704720207047036813F007020BD0D90722D49A074BBF5B089B08036003604CBF0120022084
:4039C000704799B209B91B0C102213F0FF0F04BF1B0A0832190704BF1B090432990704BF9B080232D90702D45B0805D00132036010467047002070472020704710B50C468A
:403A00000121FFF727FF01224461026110BD2DE9F74F14460A69236988469A42BEBF0B46A0461C46D8F81070D4F81090D8F80830D8F8041007EB09069E42C8BF0131FFF7A3
:403A400009FF00F114052B4605EB860C0022634502D243F8042BFAE704F1140208F1140102EB890301EB87070093009B0192934257D9B2F800B0BBF1000F23D08946AE46BB
:403A80004FF0000859F8044BBEF800A0A3B20BFB03A34FEA144ADEF8004043444FEA14480BFB0A84F24604EB13449BB243EA04434F454FEA14484AF8043B01D9D646E1E7C4
:403AC000CEF80480019B0432B3F802A0BAF1000F21D02C4689462B684FF00008B9F800E0B4F802B09BB20AFB0EBEA346F04443EA08434BF8043B59F8043BB4F804E01B0C2C
:403B00000AFB03E34F4503EB18434FEA134801D95C46E3E763600435A7E75CF8043D13B9013E002EF9DC066103B0BDE8F08F00002DE9F843154612F0030206460F4607D04D
:403B4000214C013A002354F82220FFF7CFFE0746AD1036D0746A3CB91020FFF765FE7062446084600460C460D6F82480D8F808404CB940F271213046FFF740FF0446002370
:403B8000C8F8080003604FF00008EB070AD5394622463046FFF73BFF814639463046FFF78EFE4F466D100CD0206808B10446ECE7224621463046FFF72AFF2060C0F800808F
:403BC000F4E73846BDE8F883A84500002DE9F0470C460746914626694FEA621A56444968A368751CAB4202DA01315B00FAE73846FFF730FE002380461A4600F114015345B1
:403C000003DA41F823200133F9E72AEAEA73206901EB830319F01F0904F1140101EB800E14D0C9F1200C002208689A4600FA09F0024343F8042B51F8042B8E4522FA0CF2B3
:403C4000F2D8CAF8042042B1B51C06E0043B51F8042B8E4543F8042FF9D8013D3846C8F810502146FFF72BFE4046BDE8F08703690A6910B59B1A11D192001430143183182C
:403C80000A4453F8044D52F8041D8C4202D007D3012010BD9842F4D3002010BD184610BD4FF0FF3010BD2DE9F8430C460746114620461546FFF7DBFF061E08D13146384689
:403CC000FFF7C8FD012303614661BDE8F883BCBF23462C4638466168BABF1D4601260026FFF7B8FD2B69C660266905F1140904F1140101EB860709EB830800F114054FF0A2
:403D0000000C51F8042B59F8044B93B29C44A3B2240CC3EB0C03C4EB124202EB23429BB24FEA224CC84543EA02428E4645F8042BE7D8BE450ED25EF8041B8AB262441314D1
:403D400003EB114392B242EA03424FEA234C45F8042BEEE755F8043D0BB9013EFAE70661BDE8F8832DE9F3411C4601219046089E099DFFF76FFDC4F31302C4F30A540746EA
:403D80000CB142F480120192B8F1000F19D002A840F8088DFFF705FE009B48B1019AC0F1200102FA01F10B43C2407B61019200E07B61019B002B14BF02210121BB613961DB
:403DC00007E001A8FFF7EDFD019B01217B613961203034B1A4F2334404443460C0F1350009E0A0F2324007EB810330601869FFF7B8FDC0EB41102860384602B0BDE8F08132
:403E000038B502FB01F4214600F054F8054618B122460021FEF707FA284638BD38B50546002944D051F8043C0C1F002BB8BFE41800F017FA1E4A1368114613B96360146005
:403E400030E0A3420DD92268A018834201BF18685B681218226063600C6023E0A24203D813465A68002AF9D118681918A1420BD12168014458188242196013D110685268B0
:403E8000014419605A600DE002D90C232B6009E021686018824201BF106852680918216062605C602846BDE8384000F0DBB938BD5082FF1F70B5CD1C25F0030508350C2DB3
:403EC00038BF0C25002D064601DBA94202D90C23336046E000F0C5F9234B1C681A462146A1B10B685B1B0ED40B2B03D90B60CC18CD501EE08C420BBF63684B68136063604B
:403F000018BF0C4615E00C464968E9E7174C23681BB9304600F07AF920602946304600F075F9431C18D0C41C24F00304A0420DD12560304600F096F904F10B00231D20F066
:403F40000700C31A0ED05A42E25070BD211A304600F05CF90130EBD10C233360304600F081F9002070BD00BF5082FF1F4C82FF1F2DE9F0478E6882469E420C469146984625
:403F80003ED88A8912F4906F3AD02568096902236F1A656905EB450595FBF3F57B1C43449D4238BF1D4653050FD52946FFF782FF064698B13A462169FEF72AF9A38923F429
:403FC000906343F08003A38113E02A4600F04BF9064670B921695046FFF720FF0C23CAF80030A3894FF0FF3043F04003A381BDE8F08726613E44266046466561ED1BA56054
:40400000464528BF464649463246206800F00EF9A36800209B1BA36023681E442660BDE8F08700002DE9F04F9DB003938B8980461C060D4616460DD50B695BB94021FFF7E5
:4040400039FF2860286118B90C23C8F80030CDE040236B610023099320238DF82930DFF89CB130238DF82A3037463C4614F8013B1BB9B7EB060910D003E0252BF9D02746E0
:40408000F3E74B46324629464046FFF771FF013000F0A780099B4B4409933B78002B00F0A08000234FF0FF3204930793059206938DF853301A930126052221784E48FFF7A1
:4040C000BBFB671C049B38B14B4A3C46801A06FA00F018430490EFE7D90644BF20228DF853201A0744BF2B228DF8532022782A2A03D0079A00210A200BE0039A111D126837
:404100000391002A10DA524243F00200079204900BE027463B780134303B092B03D800FB02320121F5E701B107923B782E2B1ED17B782A2B0AD1039B02371A1D1B6803926B
:40414000002BB8BF4FF0FF33059310E0002319460593781C0A2407463A780130303A092A03D804FB01210123F5E703B10591032239782248FFF760FB40B14023CBEB00001A
:4041800003FA00F0049B013718430490397806221B487E1C8DF82810FFF74EFB88B1194B33B9039B073323F007030833039314E003AB00932A46144B04A94046FEF7CCF83B
:4041C00007E003AB00932A460F4B04A94046FEF77DFBB0F1FF3F824603D0099B5344099342E7AB895B0601D4099801E04FF0FF301DB0BDE8F08F00BFE0450000E645000059
:40420000EA45000059230000713F000038B5064C0023054608462360FCF7C2FB431C02D1236803B12B6038BD6C82FF1F884210B501EB020301D8421E0BE09842FBD2811814
:40424000D21AD34204D013F8014D01F8014DF8E710BD994204D011F8014B02F8014FF8E710BD70477047F8B5074615460E4621B91146BDE8F840FFF71DBE1AB9FFF7CEFD99
:404280002846F8BD00F015F885420ED929463846FFF710FE044650B131462A46FDF7B8FF31463846FFF7BAFD01E03046F8BD2046F8BD51F8040C0028BEBF091851F8043CF1
:4042C000C0180438704700004FF0FF3C06E000BF4FF0010C02E000BF4FF0010C4DF804CD4FEA410C7FEA6C5C4FEA430C18BF7FEA6C5C1BD001B050EA410C0CBF52EA430CC5
:4043000091EA030F02BF90EA020F0020704710F1000F91EA030F58BF994208BF90422CBFD8176FEAE37040F0010070474FEA410C7FEA6C5C02D150EA013C07D14FEA430CD6
:404340007FEA6C5CD6D152EA033CD3D05DF8040B704700BF8446104662468C461946634600E000BF01B5FFF7B7FF002848BF10F1000F01BD4DF808EDFFF7F4FF0CBF0120BE
:4043800000205DF808FB00BF4DF808EDFFF7EAFF34BF012000205DF808FB00BF4DF808EDFFF7E0FF94BF012000205DF808FB00BF4DF808EDFFF7CEFF94BF012000205DF8C2
:4043C00008FB00BF4DF808EDFFF7C4FF34BF012000205DF808FB00BF4FEA410C7FEA6C5C02D150EA013C0AD14FEA430C7FEA6C5C02D152EA033C02D14FF0000070474FF0D2
:40440000010070470000000043757272656E742074696D653A202569200D0A00446174613A20256920200D0A0000000057414D210D0A00004173746570733A202569202D78
:4044400020526F756E6465643A202569200D0A004573746570733A202569202D20526F756E6465643A202569200D0A00405100403000000001400010001401400008004084
:404480000140000A004C014000020050014020004300494E4600696E66004E414E006E616E00300030313233343536373839414243444546003031323334353637383961BA
:4044C000626364656600496E66696E697479004E614E00504F534958002E000000000000000000000000F03F000000000000244000000000000059400000000000408F4085
:40450000000000000088C34000000000006AF8400000000080842E4100000000D01263410000000084D797410000000065CDCD41000000205FA00242000000E87648374260
:40454000000000A2941A6D42000040E59C30A2420000901EC4BCD64200003426F56B0C430080E03779C3414300A0D8855734764300C84E676DC1AB43003D9160E458E14359
:40458000408CB5781DAF154450EFE2D6E41A4B4492D54D06CFF08044F64AE1C7022DB544B49DD9794378EA4405000000190000007D000000000000000080E03779C341438E
:4045C000176E05B5B5B89346F5F93FE9034F384D321D30F94877825A3CBF737FDD4F1575232D302B2000686C4C0065666745464700000000F8B500BFF8BC08BC9E46704725
:404600004D0000001D0A0000F8B500BFF8BC08BC9E4670472900000028460000C880FF1F40010000680000000000000000127A000100000000000000000000000100000053
:404640000000000000000000000000000100000000000000000000000100000001000000000000000000000001000000000000000000000001000000010000000000000034
:4046800000000000010000000000000000000000010000000100000000000000000000000100000000000000000000000000000000127A007082FF1F0000E02EC05D00002F
:4046C0001800000000366E01000000000000000000000000000000000000000000000000000000000000000090440000000000000000000000000000000000000000000029
:40470000000000000000000000000000000000000000000000000000000000000000000000000000000000006881FF1FD9440000E5450000E5450000E5450000E5450000AD
:40474000E5450000E5450000E5450000E5450000E5450000FFFFFFFFFFFFFFFFFFFFFFFFFFFF00000000000000000000000000000000000000000000000000000000000075
:4047800000000000000000000000000000000000000000000000000000000000000000000000000000000000000000000000000000000000000000000000000000000000F9
:4047C00000000000000000000000000000000000000000000000000000000000000000000000000000000000000000000000000000000000000000000000000000000000B9
:404800000000000000000000000000000000000000000000000000000000000000000000000000000000000000000000000000000000000000000000000000000000000078
:404840000000000000000000000000000000000000000000000000000000000000000000000000000000000000000000000000000000000000000000000000000000000038
:020000040003F7
:0200000480007A
:4000000003520040015B004003640040046500400105014007070140490801404C090140590A01403B0B01403714014021150140401601402717014044180140371901400F
:40004000461A0140401B0140064001400641014004420140084301400545014007460140034701400548014005490140044C0140084D014007500140025101401102618019
:40008000644027218878890F8A07840D864789388B728A80804098209A80AC20E001E602EE090201040107050B0111061301140117031A01260127022B062D083001310832
:4000C00035073B203E013F0154205604580459045B045D105F01801C820284108503860C870C8B058E03910A9304941495039704980999039A109B04A020A410A80CAA113F
:40010000AB08B420B50FB61FBB20BE10C026C103C5ECC70BC813C9FFCAFFCBFFCEF0CF44D00CD401D804D904DA04DB04DF01E6C0EA40EB02000401820404050309080B0843
:400140000C200E201080112C1302161019801A041E40200425102610278428042C042D042E102F0530203111330435013704380439013A103B123C043F1040044304440129
:40018000478048A04B10510859105A445B025D0164116744820287409020921093029404981099019A109F04A104A308A612AF01B204B320B580C03DC266C42ECA74CCC743
:4001C000CE66D006D204D68FD8F0EE010101020403020401080109010B080E01120C131E15011704180C1C0C1D101F012402280C2F213004312032033408371F38083E111E
:400200003F404002410542204401450B46CD47FE483D49FF4AFF4BFF4C224EF04F0C508C51105602580459045A245B245C805D885F31684069016AC06B018032820C8407F2
:4002400086188A3094079638A60DAA20B03CB403B820BA02BE10C002C704C9FFCA07CBFFCC40CD20CEF0CF05D008D608D804DA04DB04DD10DF01E040E1A8E240E3200004D2
:4002800002400306041405010A4A0E2010081210161418101A141B011D211F022001210229803102324439114001420444804520464049084A02501052405309550456145A
:4002C0005C805F2064026704680869116ACA7801810888128B049801B001C07FC22BC466CA08CC0BCE05D02CD208D630D830DE01E404E6200A01120225012A022B013101ED
:40030000320136023E403F01404649FF4AFF4BFF4F015018528054015604580459045A045B045C015D995F016040624064406540668068806A806C806E80C046C9FFCAFF1D
:40034000CBFFCD83CE03CF01D018DA04DD09DF01E040E240E440E540E680E880EA80EC80EE800308090210081948208029082B0C4102450248084C0859456380710283401D
:4003800084409905A008A304A502B008B301B640C002C208C402CA06D081D224D60BD801E002EE08020119011E012C012F013001330139023E013F05404649FF4AFF4BFF6B
:4003C0004D834E034F0150185441580459045A045B045D195F016040624064406540668068806A806C806E80AF01B501B701C046C5ECC702C813C9FFCAFFCBFFCD83CE0331
:40040000CF01D018D608D904DA04DB04DC10DD19DF01E040E240E440E540E680E880EA80EC80EE8006800D080F1215801E8021402220248025082A802E8036204102450292
:40044000480849054C08500858205A405C085D205E80630A67109480982099209A80B120C010C280C480CA18CC20D081D224D67CD84C000101010206040608020C040D01EF
:400480001601170118061A011B022007230224062601270133013407350239083A203B803F10580459045F0180038110820C840C85608804891C8B618C108D2490029304E4
:4004C00096039763980F991C9B629C089D7FA00FA140A403A518A80CA908AA03AC01AD67AF18B00FB410B51FB760BA02BB20BE10D418D804D904DB04DF01002001A20310B5
:4005000005260602071009080A040B420D080E04100211441288170919121B011E041F102220230A240425402680272129242B412F50310932A03608372839443A023B2244
:400540003D803F024FC05B02600463018D10902097049980B308C0FFC26FC43FCACFCC6FCE9FD601D80CEA200401060E0B010C440E311B01246728672C222ED13080320774
:400580003418366037013E103F40401341054206440246CE480C49FF4AFF4BFF4C624DA04EF04F41500C580459045A045F016640670269106A306B106D106E106F12800114
:4005C00082068406850188028C0790089101960198089901A006A101A201A407A808AC04B208B407B501BF10D602D711D804D904DB04DF01018C050607090C200D080E80AC
:40060000102A141015101682180419891B401D18230126102D022E01311034103621370138203E0440044108420149104A01501053405E206C286D106E8074107504760292
:400640007708870488028A8492049504978599029B019D059E02A220A412A508A740B410C0F5C270C4F7CA80CCA4CE44D00ED20CD620EE483328360837403B40CCF0CE10C9
:40068000331097409F40A608A728CC1097409F50A608A728874897409F10A608A728AB40E640EE80008003105301C00AD4011A80830197029B10B040C608EE04AA40B7100B
:4006C000EE0226089F10A608A720C88083109F10AF20E220EE101F808C01C601E0021080700188809002AF80C408DC01E60100030C03100311011A021B011C0100FF010F95
:4007000000000000000014008000408080008000000000000000000000002000F00B0B00000000007D7A02000200800000FFFF00000000000C0018010C001801000000007C
:400740000000000000000000000000000000000000000000000000000000000000000000000000000000000000000000000000000000000000000000000000000000000079
:400780000000000000000000000000000000000000000000000000000000000000000000000000000000000000000000000000000000000000000000000000000000000039
:4007C00000000000000000000000000000000000000000000000000000000000000000000000000000000000000000000000000000000000000000000000000000000000F9
:4008000000000000000000000000000000000000000000000000000000000000000000000000000000000000000000000000000000000000000000000000000000000000B8
:0200000490006A
:0400000000004005B7
:0200000490105A
:04000000BC90ACAF55
:0200000490303A
:0200000086AACE
:0200000490402A
:4000000000000000000000000000000000000000000000000000000000000000000000000000000000000000000000000000000000000000000000000000000000000000C0
:400040000000000000000000000000000000000000000000000000000000000000000000000000000000000000000000000000000000000000000000000000000000000080
:400080000000000000000000000000000000000000000000000000000000000000000000000000000000000000000000000000000000000000000000000000000000000040
:4000C0000000000000000000000000000000000000000000000000000000000000000000000000000000000000000000000000000000000000000000000000000000000000
:0200000490501A
:0C00000000012E16106900012E3397132A
:00000001FF