:400000000080002011000000290600002906000008B5044B1A6803F53F5302331A6000F023FB00BFFA46004010B5054C237833B9044B13B10448AFF300800123237010BDFB
:40004000C081FF1F000000003C130000084B10B51BB108490848AFF300800848036803B910BD074B002BFBD0BDE81040184700BF00000000C481FF1F3C130000C880FF1F74
:400080000000000070B594B062B600F075FB104800F09CFC0F4800F0C1FC0F4800F09EFB00F050F9044600F055F9054600F042F9064600F037F90290019600952346074A80
:4000C000402104A800F008FD04A800F087FBE7E765030000B5020000401300007013000010B50446007800F099FB207900F0D0FB207A00F0B9FB207B00F0A2FB10BD00BFCC
:4001000008B500F097FBB8B900F0CEFBA0B900F0B7FB88B900F0A0FB70B9264B1B68264A134003D5013B63F007030133234800EB0310FFF7D5FF08BD214B1B68002B1BDD00
:4001400000F0CAFB18B900221D4B1A6008BD194A1368013313601848034003D5013B63F007030133154800EB0310FFF7B9FF144A1368013B136008BD002B1ADA00F0B4FB4F
:4001800018B900220E4B1A6008BD0A4A1368013B13600948034003D5013B63F007030133064800EB0310FFF79BFF054A13680133136008BDCC80FF1F07000080D080FF1F8C
:4001C000DC81FF1F10B50446007800F095FB207900F0A6FB207A00F0B7FB207B00F0C8FB10BD00BF08B500F093FBC0B900F0A4FBA8B900F0B5FB90B900F0C6FB78B9294B5A
:40020000D3F88430284A134003D5013B63F007030133264800EB0310FFF7D4FF08BD244B5B68002B1DDD00F04FFB18B90022204B5A6008BD1B4AD2F884300133C2F88430E8
:400240001948034003D5013B63F007030133174800EB0310FFF7B6FF154A5368013B536008BD002B1CDA00F027FB18B90022104B5A6008BD0B4AD2F88430013BC2F88430E2
:400280000948034003D5013B63F007030133074800EB0310FFF796FF054A53680133536008BD00BFCC80FF1F07000080D080FF1FDC81FF1F08B5194B1B6813B1FFF720FF61
:4002C00012E000F0B7FA01280BD000F0EDFA012807D000F0D5FA012803D000F0BDFA012802D10F48FFF7FCFE0C4B5B6813B1FFF779FF08BD00F00CFB01280BD000F01CFBD8
:40030000012807D000F02CFB012803D000F03CFB012802D10248FFF755FF08BDDC81FF1FE481FF1F08B500F0DFFAB0FA80F0400908BD00BF08B500F0CFFAB0FA80F04009EA
:4003400008BD00BF08B500F0B7FAB0FA80F0400908BD00BF08B500F0B7FAB0FA80F0400908BD00BF10B500F023FAC4B2204600F029FA6A2C05D1134A1368A3F548731360A4
:4003800010BD682C05D10F4A136803F54873136010BD752C05D10B4A5368A3F5FA53536010BD6E2C05D1074A536803F5FA53536010BD612C04D1034A536803F28A23536053
:4003C00010BD00BFDC81FF1FFEE700BFF0B40022174611E050F82760F3B226F0FF0608E001EB420511F812406D78A5550132013BDBB2002BF4D101370E2FEBD9F0BC7047D2
:40040000064B1B78DBB203F00701054A11701B09013213704422034B1A707047CF0100496E5800407658004008B50A46002100F04AFB08BD38B53322264B1A801823264A64
:40044000137045F6BF5102321180023213700222224B1A7008224FF040231A70032103F5007319701E4B1B78DBB21E490B701E4B1A8041F25122023B1A80002419250CE070
:400480001A4B1B7803F0010343EA440404F003044FF4F07000F0D0FA013D0DB1032CEFD115B90320FFF790FF114B4FF480721A8007221A7000220F490A704820023108703A
:4004C0001A700222033B1A700B4A137843F00303137038BD80400040824000400043004008010049A146004022420040254200400440004006400040A243004008B500F0D0
:40050000D7FA08BD38B572B6364A137843F00403137000240CE0344D630019194A0011462A44084691882858FFF77EFF0134E4B2082CF0D900240CE02B48A20011194B0057
:400540000344B3F84020D96B986BFFF7D7FF0134E4B2012CF0D925494FF09040FFF736FF234A137843F0020313701032137843F0020313701F4C237843F040032370A2F5CC
:400580008632513A137843F0100313700A221A491A48FFF7B3FF082219491A48FFF7AEFF082219491948FFF7A9FF082218491948FFF7A4FF184A137843F008031370174D58
:4005C00061232B70FFF736FF81232B700122144B1A70FFF715FF0E2221461248FFF78EFF38BD00BFE84600409C1300003C00004803500140A043004024030048C05100401C
:4006000030030048F251004038030048125100404003004832510040224300400048004004000840B043004008B500F015FA03680C2B00D1FEE7FEE708B5094B1A681044BC
:40064000084BC31A802B02DC054B186005E000F003FA0C2303604FF0FF32104608BD00BF5481FF1F0882FF1F08B5104E104D16E029686B68AC68002204E051F8040B43F831
:40068000040B0432A242F8D1E868002203E0002143F8041B04328242F9D11035013E002EE6D100F0DFF9FFF7EDFCFEE7010000004414000008B5104A104B1A60104A1368A5
:4006C00043F40073136000230AE0032B03D80D4A52F8231000E00C490C4A42F8231001332F2BF2D90A4B1A780A4B1A70074A0A4B1A60FFF707FF08BD0004FA050CED00E01F
:4007000014ED00E000000000290600000080FF1FBC760040C080FF1F08ED00E07222074B1A70202201331A7006225F3B1A70472210331A70002251331A7070478865004060
:4007400010B500F081F904460A4A137843F0200313700132137843F0100313700232137843F01003137000F04BF8204600F070F910BD00BF9865004008B5054B1B7823B902
:40078000FFF7CCFF0122024B1A70FFF7D9FF08BDF481FF1F014B1878704700BF48650040024B187800F07F00704700BF6965004010B5FFF7F5FF0402FFF7ECFF204380B21E
:4007C00010BD00BF034B1B7813F0040FFAD1024B187070476B6500404B65004038B5074B1B782BB938BDFFF7EDFF0134A4B201E005460024285D0028F5D138BDF481FF1FBC
:40080000054A137843F0010313701032137843F001031370704700BFA2430040044A137803F07F03C001C0B218431070704700BF10510040014B1878C00970471151004091
:40084000044A137803F0EF03000100F0100018431070704710510040024B1878C0F30010704700BF11510040044A137803F0DF03400100F02000184310707047105100409C
:40088000024B1878C0F34010704700BF11510040044A137803F0BF03800100F0400018431070704710510040024B1878C0F38010704700BF11510040024B1878C0F3800086
:4008C000704700BF11510040024B187800F00100704700BFF1510040024B1878C0F38000704700BFF1510040024B1878C0F34000704700BFF1510040044A137803F0FE037D
:4009000000F0010018431070704700BF30510040024B187800F00100704700BF31510040044A137803F0FD03400000F0020018431070704730510040024B1878C0F340008D
:40094000704700BF31510040044A137803F0FB03800000F0040018431070704730510040024B1878C0F38000704700BF31510040044A137803F0F703C00000F0080018438D
:400980001070704730510040024B1878C0F3C000704700BF31510040014B1B685864704708ED00E04001C0B2014B1870704700BF01E400E00222014B1A60704700E100E07C
:4009C0000222014B1A60704780E100E010B50446FFF7F6FF2046FFF7DFFF0720FFF7E2FFFFF7E8FF10BD00BF014B1B681864704708ED00E04001C0B2014B1870704700BFA6
:400A000000E400E00122014B1A60704700E100E00122014B1A60704780E100E010B50446FFF7F6FF2046FFF7DFFF0720FFF7E2FFFFF7E8FF10BD00BF0230800803D000BFC9
:400A400001380046FCD17047EFF3108072B6704780F31088704700BF014B1868704700BFB881FF1F0E4B70B51E460E4C0025E41AA410A54204D056F8253098470135F8E7A3
:400A800000F0CEFC084B094C1E46E41AA4100025A54204D056F8253098470135F8E770BD2C1400002C1400002C1400003414000010B5431E0A44914204D011F8014B03F8A7
:400AC000014FF8E710BD03460244934202D003F8011BFAE7704700000CB430B5164B0C1E9DB01D6804DA8B232B604FF0FF301EE04FF40273ADF814300CBF234604F1FF3394
:400B0000049307934FF6FF7302900690ADF81630209A21AB02A92846019300F069F8431CBCBF8B232B6014B1029B00221A701DB0BDE8304002B07047B881FF1F2DE9F04726
:400B40008E6882469E420C46914698463ED88A8912F4906F3AD02568096902236F1A656905EB450595FBF3F57B1C43449D4238BF1D4653050FD5294600F040FB064698B1A9
:400B80003A462169FFF794FFA38923F4906343F08003A38113E02A4600F08EFB064670B92169504600F0DEFA0C23CAF80030A3894FF0FF3043F04003A381BDE8F087266161
:400BC0003E44266046466561ED1BA560464528BF464649463246206800F0A8FAA36800209B1BA36023681E442660BDE8F08700002DE9F04F9DB003938B8980461C060D4675
:400C000016460DD50B695BB9402100F0F7FA2860286118B90C23C8F80030CDE040236B610023099320238DF82930DFF89CB130238DF82A3037463C4614F8013B1BB9B7EBDC
:400C4000060910D003E0252BF9D02746F3E74B46324629464046FFF771FF013000F0A780099B4B4409933B78002B00F0A08000234FF0FF3204930793059206938DF85330DD
:400C80001A930126052221784E4800F041FA671C049B38B14B4A3C46801A06FA00F018430490EFE7D90644BF20228DF853201A0744BF2B228DF8532022782A2A03D0079A87
:400CC00000210A200BE0039A111D12680391002A10DA524243F00200079204900BE027463B780134303B092B03D800FB02320121F5E701B107923B782E2B1ED17B782A2B66
:400D00000AD1039B02371A1D1B680392002BB8BF4FF0FF33059310E0002319460593781C0A2407463A780130303A092A03D804FB01210123F5E703B10591032239782248E8
:400D400000F0E6F940B14023CBEB000003FA00F0049B013718430490397806221B487E1C8DF8281000F0D4F988B1194B33B9039B073323F007030833039314E003AB009313
:400D80002A46144B04A94046AFF3008007E003AB00932A460F4B04A9404600F093F8B0F1FF3F824603D0099B5344099342E7AB895B0601D4099801E04FF0FF301DB0BDE829
:400DC000F08F00BFEA130000F0130000F4130000000000003D0B00002DE9F04791461F460A698B6806469342B8BF1346C9F8003091F843200C46DDF8208012B10133C9F82A
:400E000000302368990642BFD9F800300233C9F80030256815F0060510D104F1190A07E00123524639463046C04701301AD00135E368D9F800209B1A9D42F1DB94F843300F
:400E40002268003318BF012392060FD5E118302081F843005A1C94F845102244023382F8431003E04FF0FF30BDE8F08704F1430239463046C0470130F4D02268D9F8005037
:400E8000E36802F00602042A08BF5D1B2269A3680CBF25EAE57500259342C4BF9B1AED184FF000091A344D4509D00123224639463046C0470130D5D009F10109F3E7002022
:400EC000BDE8F0872DE9F04317460A7E85B06E2A984606460C460C9B01F1430E00F0AE8011D8632A22D009D8002A00F0BB80582A40F0CA8081F84520834955E0642A1ED062
:400F0000692A1CD0C0E0732A00F0B08009D86F2A2ED0702A40F0B8800A6842F020020A603EE0752A24D0782A3AD0ADE01A6801F14205111D1960136884F84230A8E0216865
:400F40001A6811F0800F02D0111D196008E011F0400F02F10401196002D0B2F9003000E01368002B3CDA2D225B4284F8432037E021681A6811F0800F02D0111D196007E017
:400F800011F0400F02F10401196001D0138800E01368227E5C496F2A14BF0A2208221BE078225A4984F845202268186812F0800F00F104051D6003D1550601D5038800E007
:400FC0000368D00744BF42F0200222601BB9226822F0200222601022002084F8430001E049490A226568002DA56008DB206820F0040020602BB9002D7DD175460CE0002BE3
:4010000079D07546B3FBF2F002FB1033CB5C05F8013D03460028F5D1082A0BD12368DA0708D5236962689A42DEBF302305F8013C05F1FF35C5EB0E0323612EE008681A6821
:4010400010F0800F496903D0101D1860136808E010F0400F02F104001860136801D0198000E0196000232361754616E01A68111D1960156800216268284600F049F808B117
:40108000401B6060636804E004F1420584F8422001232361002384F84330CDF800803B4603AA21463046FFF797FE013002D14FF0FF3026E023692A4639463046C047013016
:4010C000F5D023689B0710D5002504F1190907E001234A4639463046C0470130E7D00135E368039A9B1A9D42F2DBE068039B9842B8BF184605E00B7804F1420584F84230B8
:401100008AE705B0BDE8F083FB1300000C14000010B5C9B202449042034605D01C7801308C42F8D1184610BD002010BD884210B501EB020301D8421E0BE09842FBD2811875
:40114000D21AD34204D013F8014D01F8014DF8E710BD994204D011F8014B02F8014FF8E710BD000038B50546002944D051F8043C0C1F002BB8BFE41800F0D4F81E4A1368EE
:40118000114613B96360146030E0A3420DD92268A018834201BF18685B681218226063600C6023E0A24203D813465A68002AF9D118681918A1420BD12168014458188242D2
:4011C000196013D110685268014419605A600DE002D90C232B6009E021686018824201BF106852680918216062605C602846BDE8384000F098B838BDFC81FF1F70B5CD1C3D
:4012000025F0030508350C2D38BF0C25002D064601DBA94202D90C23336046E000F082F8234B1C681A462146A1B10B685B1B0ED40B2B03D90B60CC18CD501EE08C420BBF9C
:4012400063684B681360636018BF0C4615E00C464968E9E7174C23681BB9304600F052F820602946304600F04DF8431C18D0C41C24F00304A0420DD12560304600F053F885
:4012800004F10B00231D20F00700C31A0ED05A42E25070BD211A304600F034F80130EBD10C233360304600F03EF8002070BD00BFFC81FF1FF881FF1FF8B5074615460E4622
:4012C00021B91146BDE8F840FFF798BF1AB9FFF749FF2846F8BD00F027F885420ED929463846FFF78BFF044650B131462A46FFF7DFFB31463846FFF735FF01E03046F8BD08
:401300002046F8BD38B5064C0023054608462360FFF792F9431C02D1236803B12B6038BD0082FF1F7047704751F8040C0028BEBF091851F8043CC018043870470000000021
:40134000526561647920746F2074657374206E6577206964656173207468617420646F65736E277420776F726B210D0A0000000055703A2025692C20446F776E3A202569CC
:401380002C2052696768743A2025692C204C6566743A20256920200D0A0000000051004010002051004010004051004030000000014000100014014000048018014080037C
:4013C00000400140000A004C014000020050014020000000605200409C020048060000180140A402004880004300232D302B2000686C4C0065666745464700303132333451
:401400003536373839414243444546003031323334353637383961626364656600000000F8B500BFF8BC08BC9E4670474D000000B5060000F8B500BFF8BC08BC9E4670479C
:401440002900000058140000C880FF1FF800000048000000000000000000000000127A000100000000000000000000000000000001000000010000000000000000000000A2
:401480000000000001000000000000000000000000000000010000000100000000000000000000000000000001000000000000000000000000000000010000000100000026
:4014C000000000000000000000000000010000000100000000000000000000000100000000127A000882FF1F000000000000000000000000000000000000000000000000B5
:401500000000000000000000E813000000000000000000000000000000000000000000000000000000000000000000000000000000000000000000000000000000000000B0
:4015400000000000000000005881FF1F0000000000000000000000000000000000000000000000000000000000000000000000000000000000000000000000000000000074
:40158000000000000000000000000000000000000000000000000000000000000000000000000000000000000000000000000000000000000000000000000000000000002B
:4015C00000000000000000000000000000000000000000000000000000000000000000000000000000000000000000000000000000000000000000000000000000000000EB
:4016000000000000000000000000000000000000000000000000000000000000000000000000000000000000000000000000000000000000000000000000000000000000AA
:40164000000000000000000000000000000000000000000000000000000000000000000000000000000000000000000000000000000000000000000000000000000000006A
:020000040003F7
:0200000480007A
:4000000003650040011701401D18014040190140691A01404B1B0140034001400241014002420140024301400648014001490140084D0140025001400151014088728938A0
:400040008B0FE204800483028A028B028E08920894089808A202A401A801A901AC01B002B101B204B401B502B608B880BB08BE05BF11D418D604D804D904DB04DF010242D5
:4000800003040410050306200702092A0C400D200E020F2010A21110148016821728180119081B111D231E201F102010210C220123042603270529202D822E202F143440B9
:4000C0003604372238013A103E8A3F20452047444C804D804F2056105B015E2063866C226D106E047608772A8340C0FBC2EEC4FFCAF4CCF0CEF5D070D230D621D80D0410A6
:40010000058006AC07130A030C0C0E710F0C100912D01414152C174319711B061F08201021712240230E262028DC2A2230E031C0330F341F353039223A023B083F104002CE
:40014000460449FF4A074BFF4C404D204EF04F055008580459045A045F01604061A86240632080138108820483158420851886C0881389188A0C9208940A961498E09C039E
:400180009D109E149F0CA080A220A615A8E0AB02AC40AE20B010B106B2E0B301B40FB718BA20BE01BF01C026C101C50BC60EC7C0C825C9FFCAFFCBFFCEF0CF44D00CD40164
:4001C000D804D904DA04DB04DF01E6C0EA40EB0201200201031005150A200B400D080E040F4210801104120814801514160219211D141E401F0420042108220823402684AA
:40020000274029012A012F0430803118331034803680380839043B403D103E064004460147104C044E105084564057035C015D085E405F106001624087128A02911092041E
:40024000970899089C809D209E429F40A604AE01B184C077C2FCC4FECA21CC1ECEEAD034D220D6F0EC0232203580CC309D80A6209D80A6209D80A620220181809D80A62077
:40028000C840E220AE21104074048840A004AC04C408DE04E20110011C01000F80800000400000001F442000030800003F0000E308800000001000000000230433180C00AD
:4002C0001C3C23C2021C00E104E700180CC0000001FF00002C1F10000F3800C000002202000004002605030001C0E0000AFFFFFF62A0F0410C000000000002110404040431
:40030000000000010000000000004002001030100010101200000000000000000000000000000000800040808000800000000000070000000000000004FFFB0000000000B3
:40034000000F0F000000000000000000000000000000000000000000000000000000000000000000000000000000000000000000000000000000000000000000000000005F
:40038000000000000000000000000000000000000000000000000000000000000000000000000000000000000000000000000000000000000000000000000000000000003D
:4003C00000000000000000000000000000000000000000000000000000000000000000000000000000000000000000000000000000000000000000000000000000000000FD
:4004000000000000000000000000000000000000000000000000000000000000000000000000000000000000000000000000000000000000000000000000000000000000BC
:40044000000000000000000000000000000000000000000000000000000000000000000000000000000000000000000000000000000000000000000000000000000000007C
:0200000490006A
:0400000000004005B7
:0200000490105A
:04000000BC90ACAF55
:0200000490303A
:02000000408B33
:0200000490402A
:4000000000000000000000000000000000000000000000000000000000000000000000000000000000000000000000000000000000000000000000000000000000000000C0
:400040000000000000000000000000000000000000000000000000000000000000000000000000000000000000000000000000000000000000000000000000000000000080
:400080000000000000000000000000000000000000000000000000000000000000000000000000000000000000000000000000000000000000000000000000000000000040
:4000C0000000000000000000000000000000000000000000000000000000000000000000000000000000000000000000000000000000000000000000000000000000000000
:0200000490501A
:0C00000000012E16106900012E1E50F4A5
:00000001FF