:4000000000800020110000006D0600006D06000008B5044B1A6803F53F5302331A6000F045FB00BFFA46004010B5054C237833B9044B13B10448AFF300800123237010BD51
:40004000C081FF1F000000006C140000084B10B51BB108490848AFF300800848036803B910BD074B002BFBD0BDE81040184700BF00000000C481FF1F6C140000C880FF1F12
:400080000000000070B594B062B600F097FB214800F0BEFC204800F0E3FC204800F0C0FB00F054FD00F014FDC8B100F00BFD0138032814D8DFE800F002060B0F642000F090
:4000C00031F80CE06FF0630000F02CF807E0642000F0A0F803E06FF0630000F09BF800F017F900F05DF9044600F062F9054600F04FF9064600F044F90290019600952346FC
:40010000074A402104A800F07FFD04A800F088FBC8E700BFC103000011030000701400009C140000014B1860704700BFDC81FF1F10B50446007800F093FB207900F0CAFB54
:40014000207A00F0B3FB207B00F09EFB10BD00BF08B500F091FBB8B900F0C8FBA0B900F0B1FB88B900F09CFB70B9264B1B68264A134003D5013B63F007030133234800EBA2
:400180000310FFF7D5FF08BD214B1B68002B1BDD00F0CCFB18B900221D4B1A6008BD194A1368013313601848034003D5013B63F007030133154800EB0310FFF7B9FF144A06
:4001C0001368013B136008BD002B1ADA00F0A6FB18B900220E4B1A6008BD0A4A1368013B13600948034003D5013B63F007030133064800EB0310FFF79BFF054A1368013344
:40020000136008BDCC80FF1F07000080D080FF1FDC81FF1F014B5860704700BFDC81FF1F10B50446007800F089FB207900F09AFB207A00F0ABFB207B00F0BCFB10BD00BFA0
:4002400008B500F087FBC0B900F098FBA8B900F0A9FB90B900F0BAFB78B9294BD3F88430284A134003D5013B63F007030133264800EB0310FFF7D4FF08BD244B5B68002B8B
:400280001DDD00F03BFB18B90022204B5A6008BD1B4AD2F884300133C2F884301948034003D5013B63F007030133174800EB0310FFF7B6FF154A5368013B536008BD002B72
:4002C0001CDA00F023FB18B90022104B5A6008BD0B4AD2F88430013BC2F884300948034003D5013B63F007030133074800EB0310FFF796FF054A53680133536008BD00BF2A
:40030000CC80FF1F07000080D080FF1FDC81FF1F08B5194B1B6813B1FFF71AFF12E000F0ABFA01280BD000F0E1FA012807D000F0C9FA012803D000F0B3FA012802D10F4877
:40034000FFF7F6FE0C4B5B6813B1FFF779FF08BD00F000FB01280BD000F010FB012807D000F020FB012803D000F030FB012802D10248FFF755FF08BDDC81FF1FE481FF1F23
:4003800008B500F0D3FAB0FA80F0400908BD00BF08B500F0C3FAB0FA80F0400908BD00BF08B500F0ABFAB0FA80F0400908BD00BF08B500F0ABFAB0FA80F0400908BD00BF19
:4003C00010B500F017FAC4B2204600F01DFA6A2C05D1134A1368A3F54873136010BD682C05D10F4A136803F54873136010BD752C05D10B4A5368A3F5FA53536010BD6E2CC6
:4004000005D1074A536803F5FA53536010BD612C04D1034A5368A3F28A23536010BD00BFDC81FF1FFEE700BFF0B40022174611E050F82760F3B226F0FF0608E001EB42054D
:4004400011F812406D78A5550132013BDBB2002BF4D101371E2FEBD9F0BC7047064B1B78DBB203F00701054A11701B09013213704422034B1A707047CF0100496E58004080
:400480007658004008B50A46002100F0B4FB08BD38B53322294B1A801823294A137042F6DF61023211800232137045F6BF5102321180023213700222224B1A7008224FF0DC
:4004C00040231A70032103F5007319701E4B1B78DBB21E490B701E4B1A8041F25122023B1A80002419250CE01A4B1B7803F0010343EA440404F003044FF4F07000F034FB9D
:40050000013D0DB1032CEFD115B90320FFF78AFF114B4FF480721A8007221A7000220F490A704820023108701A700222033B1A700B4A137843F00703137038BD8040004070
:40054000824000400043004008010049A146004022420040254200400440004006400040A243004008B500F03BFB08BD38B572B62D4A137843F00403137000240CE02B4DFF
:40058000630019194A0011462A44084691882858FFF778FF0134E4B2072CF0D924494FF09040FFF741FF234A137843F0020313701032137843F0020313701F4C237843F056
:4005C00040032370A2F58632513A137843F0100313700A2219491A48FFF7C4FF082219491948FFF7BFFF082218491948FFF7BAFF082218491848FFF7B5FF184A137843F05D
:4006000008031370164D61232B70FFF741FF81232B700122134B1A70FFF720FF0E2221461148FFF79FFF38BDE8460040C81400007C00004803500140A0430040A4050048E6
:40064000C0510040B005004812510040B805004822510040C005004832510040224300400048004004000840B043004008B500F08BFA03680C2B00D1FEE7FEE708B5094BD5
:400680001A681044084BC31A802B02DC054B186005E000F079FA0C2303604FF0FF32104608BD00BF5481FF1F0882FF1F08B5104E104D16E029686B68AC68002204E051F8EF
:4006C000040B43F8040B0432A242F8D1E868002203E0002143F8041B04328242F9D11035013E002EE6D100F055FAFFF7CBFCFEE7010000005415000008B5104A104B1A608A
:40070000104A136843F40073136000230AE0032B03D80D4A52F8231000E00C490C4A42F8231001332F2BF2D90A4B1A780A4B1A70074A0A4B1A60FFF719FF08BD0004FA05D0
:400740000CED00E014ED00E0000000006D0600000080FF1FBC760040C080FF1F08ED00E07222074B1A70202203331A700622613B1A70472210331A7000224F331A7070472E
:400780008465004010B500F0F7F904460A4A137843F0200313700332137843F010031370023A137843F01003137000F04BF8204600F0E6F910BD00BF9465004008B5054B16
:4007C0001B7823B9FFF7CCFF0122024B1A70FFF7D9FF08BDF481FF1F014B1878704700BF44650040024B187800F07F00704700BF6765004010B5FFF7F5FF0402FFF7ECFF0A
:40080000204380B210BD00BF034B1B7813F0040FFAD1024B18707047656500404565004038B5074B1B782BB938BDFFF7EDFF0134A4B201E005460024285D0028F5D138BD85
:40084000F481FF1F054A137843F0010313701032137843F001031370704700BFA2430040044A137803F0EF03000100F0100018431070704730510040024B1878C0F300107D
:40088000704700BF31510040044A137803F07F03C001C0B218431070704700BF30510040014B1878C009704731510040044A137803F0BF03800100F040001843107070477E
:4008C00030510040024B1878C0F38010704700BF31510040044A137803F0DF03400100F0200018431070704730510040024B1878C0F34010704700BF31510040024B187898
:40090000C0F38010704700BF21510040024B1878C0F34010704700BF21510040024B1878C0F3C000704700BF21510040024B1878C0F30010704700BF21510040044A13782B
:4009400003F0FE0300F0010018431070704700BF30510040024B187800F00100704700BF31510040044A137803F0FD03400000F0020018431070704730510040024B18784C
:40098000C0F34000704700BF31510040044A137803F0FB03800000F0040018431070704730510040024B1878C0F38000704700BF31510040044A137803F0F703C00000F0BD
:4009C000080018431070704730510040024B1878C0F3C000704700BF31510040014B1B685864704708ED00E04001C0B2014B1870704700BF01E400E00222014B1A6070479A
:400A000000E100E00222014B1A60704780E100E010B50446FFF7F6FF2046FFF7DFFF0720FFF7E2FFFFF7E8FF10BD00BF014B1B681864704708ED00E04001C0B2014B18701A
:400A4000704700BF00E400E00122014B1A60704700E100E00122014B1A60704780E100E010B50446FFF7F6FF2046FFF7DFFF0720FFF7E2FFFFF7E8FF10BD00BF08B500F0B2
:400A80007BF8094A137843F020031370A2F20112137843F0100313700232137843F01003137000F06DF808BD96650040014B1878704700BF65640040014B1878704700BF87
:400AC00067640040014B1878704700BF54640040044B1B7813F0080F01D0012070470020704700BF6764004008B501E00A4B1B780A4B1B7813F0080FF8D100F03DF8084B92
:400B00001A7842F003021A701A7802F0FC021A7000F036F808BD00BF54640040676400409464004008B50722064B1A70FFF7DCFFFFF7BCFFFFF7C0FF0023034A137002325A
:400B4000137008BD866500408564004008B5054B1B7823B9FFF7E6FF0122024B1A70FFF78DFF08BDF681FF1F0230800803D000BF01380046FCD17047EFF3108072B670470C
:400B800080F31088704700BF014B1868704700BFB881FF1F0E4B70B51E460E4C0025E41AA410A54204D056F8253098470135F8E700F0BEFC084B094C1E46E41AA410002529
:400BC000A54204D056F8253098470135F8E770BD3C1500003C1500003C1500004415000010B5431E0A44914204D011F8014B03F8014FF8E710BD03460244934202D003F892
:400C0000011BFAE7704700000CB430B5164B0C1E9DB01D6804DA8B232B604FF0FF301EE04FF40273ADF814300CBF234604F1FF33049307934FF6FF7302900690ADF8163084
:400C4000209A21AB02A92846019300F069F8431CBCBF8B232B6014B1029B00221A701DB0BDE8304002B07047B881FF1F2DE9F0478E6882469E420C46914698463ED88A8912
:400C800012F4906F3AD02568096902236F1A656905EB450595FBF3F57B1C43449D4238BF1D4653050FD5294600F040FB064698B13A462169FFF794FFA38923F4906343F03A
:400CC0008003A38113E02A4600F08EFB064670B92169504600F0DEFA0C23CAF80030A3894FF0FF3043F04003A381BDE8F08726613E44266046466561ED1BA560464528BF43
:400D0000464649463246206800F0A8FAA36800209B1BA36023681E442660BDE8F08700002DE9F04F9DB003938B8980461C060D4616460DD50B695BB9402100F0F7FA28607C
:400D4000286118B90C23C8F80030CDE040236B610023099320238DF82930DFF89CB130238DF82A3037463C4614F8013B1BB9B7EB060910D003E0252BF9D02746F3E74B4668
:400D8000324629464046FFF771FF013000F0A780099B4B4409933B78002B00F0A08000234FF0FF3204930793059206938DF853301A930126052221784E4800F041FA671C87
:400DC000049B38B14B4A3C46801A06FA00F018430490EFE7D90644BF20228DF853201A0744BF2B228DF8532022782A2A03D0079A00210A200BE0039A111D12680391002AE5
:400E000010DA524243F00200079204900BE027463B780134303B092B03D800FB02320121F5E701B107923B782E2B1ED17B782A2B0AD1039B02371A1D1B680392002BB8BFBA
:400E40004FF0FF33059310E0002319460593781C0A2407463A780130303A092A03D804FB01210123F5E703B1059103223978224800F0E6F940B14023CBEB000003FA00F084
:400E8000049B013718430490397806221B487E1C8DF8281000F0D4F988B1194B33B9039B073323F007030833039314E003AB00932A46144B04A94046AFF3008007E003ABDF
:400EC00000932A460F4B04A9404600F093F8B0F1FF3F824603D0099B5344099342E7AB895B0601D4099801E04FF0FF301DB0BDE8F08F00BFFA140000001500000415000027
:400F0000000000006D0C00002DE9F04791461F460A698B6806469342B8BF1346C9F8003091F843200C46DDF8208012B10133C9F800302368990642BFD9F800300233C9F8AA
:400F40000030256815F0060510D104F1190A07E00123524639463046C04701301AD00135E368D9F800209B1A9D42F1DB94F843302268003318BF012392060FD5E1183020A3
:400F800081F843005A1C94F845102244023382F8431003E04FF0FF30BDE8F08704F1430239463046C0470130F4D02268D9F80050E36802F00602042A08BF5D1B2269A3682B
:400FC0000CBF25EAE57500259342C4BF9B1AED184FF000091A344D4509D00123224639463046C0470130D5D009F10109F3E70020BDE8F0872DE9F04317460A7E85B06E2A12
:40100000984606460C460C9B01F1430E00F0AE8011D8632A22D009D8002A00F0BB80582A40F0CA8081F84520834955E0642A1ED0692A1CD0C0E0732A00F0B08009D86F2AE1
:401040002ED0702A40F0B8800A6842F020020A603EE0752A24D0782A3AD0ADE01A6801F14205111D1960136884F84230A8E021681A6811F0800F02D0111D196008E011F006
:40108000400F02F10401196002D0B2F9003000E01368002B3CDA2D225B4284F8432037E021681A6811F0800F02D0111D196007E011F0400F02F10401196001D0138800E03D
:4010C0001368227E5C496F2A14BF0A2208221BE078225A4984F845202268186812F0800F00F104051D6003D1550601D5038800E00368D00744BF42F0200222601BB922685A
:4011000022F0200222601022002084F8430001E049490A226568002DA56008DB206820F0040020602BB9002D7DD175460CE0002B79D07546B3FBF2F002FB1033CB5C05F822
:40114000013D03460028F5D1082A0BD12368DA0708D5236962689A42DEBF302305F8013C05F1FF35C5EB0E0323612EE008681A6810F0800F496903D0101D1860136808E0BC
:4011800010F0400F02F104001860136801D0198000E0196000232361754616E01A68111D1960156800216268284600F049F808B1401B6060636804E004F1420584F842200E
:4011C00001232361002384F84330CDF800803B4603AA21463046FFF797FE013002D14FF0FF3026E023692A4639463046C0470130F5D023689B0710D5002504F1190907E0BF
:4012000001234A4639463046C0470130E7D00135E368039A9B1A9D42F2DBE068039B9842B8BF184605E00B7804F1420584F842308AE705B0BDE8F0830B1500001C150000E1
:4012400010B5C9B202449042034605D01C7801308C42F8D1184610BD002010BD884210B501EB020301D8421E0BE09842FBD28118D21AD34204D013F8014D01F8014DF8E74C
:4012800010BD994204D011F8014B02F8014FF8E710BD000038B50546002944D051F8043C0C1F002BB8BFE41800F0D4F81E4A1368114613B96360146030E0A3420DD9226842
:4012C000A018834201BF18685B681218226063600C6023E0A24203D813465A68002AF9D118681918A1420BD12168014458188242196013D110685268014419605A600DE05C
:4013000002D90C232B6009E021686018824201BF106852680918216062605C602846BDE8384000F098B838BDFC81FF1F70B5CD1C25F0030508350C2D38BF0C25002D0646BB
:4013400001DBA94202D90C23336046E000F082F8234B1C681A462146A1B10B685B1B0ED40B2B03D90B60CC18CD501EE08C420BBF63684B681360636018BF0C4615E00C466B
:401380004968E9E7174C23681BB9304600F052F820602946304600F04DF8431C18D0C41C24F00304A0420DD12560304600F053F804F10B00231D20F00700C31A0ED05A42BA
:4013C000E25070BD211A304600F034F80130EBD10C233360304600F03EF8002070BD00BFFC81FF1FF881FF1FF8B5074615460E4621B91146BDE8F840FFF798BF1AB9FFF76B
:4014000049FF2846F8BD00F027F885420ED929463846FFF78BFF044650B131462A46FFF7DFFB31463846FFF735FF01E03046F8BD2046F8BD38B5064C002305460846236051
:40144000FFF71CF9431C02D1236803B12B6038BD0082FF1F7047704751F8040C0028BEBF091851F8043CC0180438704700000000526561647920746F2074657374206E6524
:4014800077206964656173207468617420646F6E277420776F726B210D0A000055703A2025692C20446F776E3A2025692C2052696768743A2025692C204C6566743A2025A6
:4014C0006920200D0A000000005100401000405100403000F0510040100000000140001000140140000800400140000A004C014000020050014020004300232D302B200072
:40150000686C4C006566674546470030313233343536373839414243444546003031323334353637383961626364656600000000F8B500BFF8BC08BC9E4670474D000000B7
:40154000F9060000F8B500BFF8BC08BC9E4670472900000068150000C880FF1FF800000048000000000000000000000000127A000100000000000000000000000100000013
:401580000000000000000000000000000100000000000000000000000100000001000000000000000000000001000000000000000000000001000000010000000000000025
:4015C00000000000010000000000000000000000010000000100000000000000000000000100000000000000000000000000000000127A000882FF1F0000000000000000B3
:40160000000000000000000000000000000000000000000000000000F81400000000000000000000000000000000000000000000000000000000000000000000000000009E
:401640000000000000000000000000000000000000000000000000005881FF1F00000000000000000000000000000000000000000000000000000000000000000000000073
:40168000000000000000000000000000000000000000000000000000000000000000000000000000000000000000000000000000000000000000000000000000000000002A
:4016C00000000000000000000000000000000000000000000000000000000000000000000000000000000000000000000000000000000000000000000000000000000000EA
:4017000000000000000000000000000000000000000000000000000000000000000000000000000000000000000000000000000000000000000000000000000000000000A9
:401740000000000000000000000000000000000000000000000000000000000000000000000000000000000000000000000000000000000000000000000000000000000069
:020000040003F7
:0200000480007A
:40000000035200400264004004650040030301404C04014040050140430601404707014002090140020B0140040C0140030D01405514014047150140501601405017014093
:4000400001190140011B0140034001400241014002420140024301400244014009450140024601400147014006480140024C0140044D0140045001400151014011016080C3
:400080006440854787788472850F8607873883088908E20404010C011201150216011A021E022D01330134023601370238803A023E103F44400241054220440445CE46DB37
:4000C000470F481F49FF4AFF4BFF4C224EF04F0C508C51105608580459045A245B045D185F31684069016AC06B01800184028608870388028A108E3C902092029601970400
:4001000099029A409C029E04A240A602A840B03EB104B301B401B502B640BE51BF10D441D804D904DB04DC10DD10DF010322054007540AA10B080C040E420F0816501728FC
:4001400018841A011B021C401D101F4021082301252027602B012C102E0433083404372039403B803F0840404204452046084A124B025280531858905D445E2061806240E2
:400180006308660878027C807F0185849B08A508A680AA80C0F5C2FFC470CA08CC62CE40D005D208D67CD84CDE01EC040208040808080E05110112031501180619011A0152
:4001C0001C082201260227012E062F013007330134083A023E103F045608580459045B045D105F0181018306840287088833890C8A0C8B038C03900F91019230930E9633CD
:40020000971098019C089F0CA004A303A41CA623A80CAC3FAF10B02CB40FB50FB61CB710BA22BB20BF40D420D804D904DB04DD10DF010080012804020601071508100A807F
:400240000B120D020E020F04100811401260144015041740180819A01A801B201D021E041F0220082110228023042720284029802B402E402F1031043342348035803601A4
:400280003714388039643A015A025E805F2061186301640590849202932196E4970899109A109C069D409F14A601A721B203B308C0F7C2DFC4BFCA59CCEBCE07D631D83EE4
:4002C000B320EE209B20EC0439083F0459045F012720E204E42000080402051C0601080B091C11041319180119081A061B06240B251027063004311C3203340835033F10CC
:400300004036410542044402450C470E481149FF4AFF4BFF4C624DA04EF04F41500C56025712580459045A045B045F016640670269106A306B106D106E106F128101820121
:4003400087018A018C018D0291019601A001B001B103B902BE01C015C104C50BC6C0C7E0C829C9FFCAFFCBFFCEF0CF44D00CD401D804D904DA04DB04DF01E6C0EA40EB022D
:400380000002011804020609070108100E100F201104168019291E40208421022740290830103102370139153A023D023E083F80408441044501468149244B904C014F84FF
:4003C00053045510560257105A085D015E5868016914700871207301881089208A40910892089380971D98809A889B019C109D0D9E429F40A204A340A448A512C0DEC2220B
:40040000C414CA02CC85CED6D097D21CD6F2052A070409030B040F151133130C1F0826012C022D332F04333034023601370F39083B803E103F044002450449FF4A074BFF0A
:400440004C404D204EF04F0550085602580459045A045B245C085D805F31604061A862406320800981108210841085E787188BC38DFF8E03900C91C09211941C95189602D1
:40048000981499449D3C9FC1A304A580A93CABC2AC10AD08AE0CB01FB320B51FB7C0BB20BF04D418D604D804D904DB04DF01004001040340080109040B04118016121840AA
:4004C0001B011D401E08223423022540272129192A402C012E802F02301831023240351036203741388839083B933C083D283E083F8047204D0457405B026004628063406B
:400500006C016E426F147C0280028740908C9280940295049660971A98809A109C129D4C9E409F55A004A280A302A448A621A741AC01AD08B240B310C00DC20EC4A1CA1F1D
:40054000CC9FCE7FD020D601D80DDE80E601E601E22033403640CC309F40A6409F40A6409F40A6407D80DE0403080620530182208940A540C006D401E404A308AB01A3087C
:40058000274086409F40A640C880E6408308A30810108810C408E20400030A0310011A01000F0000800040808000800000000000000B0B00000000007E79010001000000A1
:4005C00000FFFF00000000000000000000000000000000000000000000000000000000000000000000000000000000000000000000000000000000000000000000000000FD
:4006000000000000000000000000000000000000000000000000000000000000000000000000000000000000000000000000000000000000000000000000000000000000BA
:40064000000000000000000000000000000000000000000000000000000000000000000000000000000000000000000000000000000000000000000000000000000000007A
:40068000000000000000000000000000000000000000000000000000000000000000000000000000000000000000000000000000000000000000000000000000000000003A
:4006C00000000000000000000000000000000000000000000000000000000000000000000000000000000000000000000000000000000000000000000000000000000000FA
:0200000490006A
:0400000000004005B7
:0200000490105A
:04000000BC90ACAF55
:0200000490303A
:020000006C9BF7
:0200000490402A
:4000000000000000000000000000000000000000000000000000000000000000000000000000000000000000000000000000000000000000000000000000000000000000C0
:400040000000000000000000000000000000000000000000000000000000000000000000000000000000000000000000000000000000000000000000000000000000000080
:400080000000000000000000000000000000000000000000000000000000000000000000000000000000000000000000000000000000000000000000000000000000000040
:4000C0000000000000000000000000000000000000000000000000000000000000000000000000000000000000000000000000000000000000000000000000000000000000
:0200000490501A
:0C00000000012E16106900012E1F7D0467
:00000001FF